{
  "contractName": "SupplyDapp",
  "abi": [
    {
      "inputs": [],
      "stateMutability": "nonpayable",
      "type": "constructor"
    },
    {
      "anonymous": false,
      "inputs": [
        {
          "indexed": true,
          "internalType": "address",
          "name": "owner",
          "type": "address"
        },
        {
          "indexed": true,
          "internalType": "address",
          "name": "spender",
          "type": "address"
        },
        {
          "indexed": false,
          "internalType": "uint256",
          "name": "value",
          "type": "uint256"
        }
      ],
      "name": "Approval",
      "type": "event"
    },
    {
      "anonymous": false,
      "inputs": [
        {
          "indexed": true,
          "internalType": "address",
          "name": "previousOwner",
          "type": "address"
        },
        {
          "indexed": true,
          "internalType": "address",
          "name": "newOwner",
          "type": "address"
        }
      ],
      "name": "OwnershipTransferred",
      "type": "event"
    },
    {
      "anonymous": false,
      "inputs": [
        {
          "indexed": false,
          "internalType": "address",
          "name": "account",
          "type": "address"
        }
      ],
      "name": "Paused",
      "type": "event"
    },
    {
      "anonymous": false,
      "inputs": [
        {
          "indexed": true,
          "internalType": "address",
          "name": "from",
          "type": "address"
        },
        {
          "indexed": true,
          "internalType": "address",
          "name": "to",
          "type": "address"
        },
        {
          "indexed": false,
          "internalType": "uint256",
          "name": "value",
          "type": "uint256"
        }
      ],
      "name": "Transfer",
      "type": "event"
    },
    {
      "anonymous": false,
      "inputs": [
        {
          "indexed": false,
          "internalType": "address",
          "name": "account",
          "type": "address"
        }
      ],
      "name": "Unpaused",
      "type": "event"
    },
    {
      "inputs": [
        {
          "internalType": "address",
          "name": "owner",
          "type": "address"
        },
        {
          "internalType": "address",
          "name": "spender",
          "type": "address"
        }
      ],
      "name": "allowance",
      "outputs": [
        {
          "internalType": "uint256",
          "name": "",
          "type": "uint256"
        }
      ],
      "stateMutability": "view",
      "type": "function",
      "constant": true
    },
    {
      "inputs": [
        {
          "internalType": "address",
          "name": "spender",
          "type": "address"
        },
        {
          "internalType": "uint256",
          "name": "amount",
          "type": "uint256"
        }
      ],
      "name": "approve",
      "outputs": [
        {
          "internalType": "bool",
          "name": "",
          "type": "bool"
        }
      ],
      "stateMutability": "nonpayable",
      "type": "function"
    },
    {
      "inputs": [
        {
          "internalType": "address",
          "name": "account",
          "type": "address"
        }
      ],
      "name": "balanceOf",
      "outputs": [
        {
          "internalType": "uint256",
          "name": "",
          "type": "uint256"
        }
      ],
      "stateMutability": "view",
      "type": "function",
      "constant": true
    },
    {
      "inputs": [
        {
          "internalType": "uint256",
          "name": "amount",
          "type": "uint256"
        }
      ],
      "name": "burn",
      "outputs": [],
      "stateMutability": "nonpayable",
      "type": "function"
    },
    {
      "inputs": [
        {
          "internalType": "address",
          "name": "account",
          "type": "address"
        },
        {
          "internalType": "uint256",
          "name": "amount",
          "type": "uint256"
        }
      ],
      "name": "burnFrom",
      "outputs": [],
      "stateMutability": "nonpayable",
      "type": "function"
    },
    {
      "inputs": [
        {
          "internalType": "address",
          "name": "spender",
          "type": "address"
        },
        {
          "internalType": "uint256",
          "name": "subtractedValue",
          "type": "uint256"
        }
      ],
      "name": "decreaseAllowance",
      "outputs": [
        {
          "internalType": "bool",
          "name": "",
          "type": "bool"
        }
      ],
      "stateMutability": "nonpayable",
      "type": "function"
    },
    {
      "inputs": [
        {
          "internalType": "address",
          "name": "spender",
          "type": "address"
        },
        {
          "internalType": "uint256",
          "name": "addedValue",
          "type": "uint256"
        }
      ],
      "name": "increaseAllowance",
      "outputs": [
        {
          "internalType": "bool",
          "name": "",
          "type": "bool"
        }
      ],
      "stateMutability": "nonpayable",
      "type": "function"
    },
    {
      "inputs": [],
      "name": "name",
      "outputs": [
        {
          "internalType": "string",
          "name": "",
          "type": "string"
        }
      ],
      "stateMutability": "view",
      "type": "function",
      "constant": true
    },
    {
      "inputs": [],
      "name": "owner",
      "outputs": [
        {
          "internalType": "address",
          "name": "",
          "type": "address"
        }
      ],
      "stateMutability": "view",
      "type": "function",
      "constant": true
    },
    {
      "inputs": [],
      "name": "paused",
      "outputs": [
        {
          "internalType": "bool",
          "name": "",
          "type": "bool"
        }
      ],
      "stateMutability": "view",
      "type": "function",
      "constant": true
    },
    {
      "inputs": [],
      "name": "renounceOwnership",
      "outputs": [],
      "stateMutability": "nonpayable",
      "type": "function"
    },
    {
      "inputs": [],
      "name": "symbol",
      "outputs": [
        {
          "internalType": "string",
          "name": "",
          "type": "string"
        }
      ],
      "stateMutability": "view",
      "type": "function",
      "constant": true
    },
    {
      "inputs": [],
      "name": "totalSupply",
      "outputs": [
        {
          "internalType": "uint256",
          "name": "",
          "type": "uint256"
        }
      ],
      "stateMutability": "view",
      "type": "function",
      "constant": true
    },
    {
      "inputs": [
        {
          "internalType": "address",
          "name": "to",
          "type": "address"
        },
        {
          "internalType": "uint256",
          "name": "amount",
          "type": "uint256"
        }
      ],
      "name": "transfer",
      "outputs": [
        {
          "internalType": "bool",
          "name": "",
          "type": "bool"
        }
      ],
      "stateMutability": "nonpayable",
      "type": "function"
    },
    {
      "inputs": [
        {
          "internalType": "address",
          "name": "from",
          "type": "address"
        },
        {
          "internalType": "address",
          "name": "to",
          "type": "address"
        },
        {
          "internalType": "uint256",
          "name": "amount",
          "type": "uint256"
        }
      ],
      "name": "transferFrom",
      "outputs": [
        {
          "internalType": "bool",
          "name": "",
          "type": "bool"
        }
      ],
      "stateMutability": "nonpayable",
      "type": "function"
    },
    {
      "inputs": [
        {
          "internalType": "address",
          "name": "newOwner",
          "type": "address"
        }
      ],
      "name": "transferOwnership",
      "outputs": [],
      "stateMutability": "nonpayable",
      "type": "function"
    },
    {
      "inputs": [
        {
          "internalType": "address",
          "name": "to",
          "type": "address"
        },
        {
          "internalType": "uint256",
          "name": "amount",
          "type": "uint256"
        }
      ],
      "name": "mint",
      "outputs": [],
      "stateMutability": "payable",
      "type": "function",
      "payable": true
    },
    {
      "inputs": [],
      "name": "decimals",
      "outputs": [
        {
          "internalType": "uint8",
          "name": "",
          "type": "uint8"
        }
      ],
      "stateMutability": "view",
      "type": "function",
      "constant": true
    }
  ],
  "bytecode": "0x60806040523480156200001157600080fd5b50604080518082018252600e81526d2137b730b334b232902a37b5b2b760911b602080830191825283518085019094526002845261109560f21b9084015281519192916200006291600391620001d9565b50805162000078906004906020840190620001d9565b50506005805460ff19169055506200009962000093620000b4565b620000b8565b620000ae33683635c9adc5dea0000062000112565b62000321565b3390565b600580546001600160a01b03838116610100818102610100600160a81b031985161790945560405193909204169182907f8be0079c531659141344cd1fd0a4f28419497f9722a3daafe3b4186f6b6457e090600090a35050565b6001600160a01b038216620001445760405162461bcd60e51b81526004016200013b906200027f565b60405180910390fd5b6200015260008383620001d4565b8060026000828254620001669190620002bf565b90915550506001600160a01b038216600081815260208190526040808220805485019055517fddf252ad1be2c89b69c2b068fc378daa952ba7f163c4a11628f55a4df523b3ef90620001ba908590620002b6565b60405180910390a3620001d060008383620001d4565b5050565b505050565b828054620001e790620002e4565b90600052602060002090601f0160209004810192826200020b576000855562000256565b82601f106200022657805160ff191683800117855562000256565b8280016001018555821562000256579182015b828111156200025657825182559160200191906001019062000239565b506200026492915062000268565b5090565b5b8082111562000264576000815560010162000269565b6020808252601f908201527f45524332303a206d696e7420746f20746865207a65726f206164647265737300604082015260600190565b90815260200190565b60008219821115620002df57634e487b7160e01b81526011600452602481fd5b500190565b600281046001821680620002f957607f821691505b602082108114156200031b57634e487b7160e01b600052602260045260246000fd5b50919050565b610ee880620003316000396000f3fe6080604052600436106101095760003560e01c806370a082311161009557806395d89b411161006457806395d89b41146102ab578063a457c2d7146102c0578063a9059cbb146102e0578063dd62ed3e14610300578063f2fde38b1461032057610109565b806370a0823114610234578063715018a61461025457806379cc6790146102695780638da5cb5b1461028957610109565b8063313ce567116100dc578063313ce567146101a857806339509351146101ca57806340c10f19146101ea57806342966c68146101ff5780635c975abb1461021f57610109565b806306fdde031461010e578063095ea7b31461013957806318160ddd1461016657806323b872dd14610188575b600080fd5b34801561011a57600080fd5b50610123610340565b6040516101309190610ae4565b60405180910390f35b34801561014557600080fd5b50610159610154366004610a84565b6103d2565b6040516101309190610ad9565b34801561017257600080fd5b5061017b6103f4565b6040516101309190610e3c565b34801561019457600080fd5b506101596101a3366004610a49565b6103fa565b3480156101b457600080fd5b506101bd610428565b6040516101309190610e45565b3480156101d657600080fd5b506101596101e5366004610a84565b61042d565b6101fd6101f8366004610a84565b610459565b005b34801561020b57600080fd5b506101fd61021a366004610aad565b610467565b34801561022b57600080fd5b5061015961047b565b34801561024057600080fd5b5061017b61024f3660046109f6565b610484565b34801561026057600080fd5b506101fd6104a3565b34801561027557600080fd5b506101fd610284366004610a84565b6104b7565b34801561029557600080fd5b5061029e6104d3565b6040516101309190610ac5565b3480156102b757600080fd5b506101236104e7565b3480156102cc57600080fd5b506101596102db366004610a84565b6104f6565b3480156102ec57600080fd5b506101596102fb366004610a84565b610547565b34801561030c57600080fd5b5061017b61031b366004610a17565b61055f565b34801561032c57600080fd5b506101fd61033b3660046109f6565b61058a565b60606003805461034f90610e77565b80601f016020809104026020016040519081016040528092919081815260200182805461037b90610e77565b80156103c85780601f1061039d576101008083540402835291602001916103c8565b820191906000526020600020905b8154815290600101906020018083116103ab57829003601f168201915b5050505050905090565b6000806103dd6105c1565b90506103ea8185856105c5565b5060019392505050565b60025490565b6000806104056105c1565b9050610412858285610679565b61041d8585856106c3565b506001949350505050565b601290565b6000806104386105c1565b90506103ea81858561044a858961055f565b6104549190610e53565b6105c5565b61046382826107c4565b5050565b6104786104726105c1565b8261086e565b50565b60055460ff1690565b6001600160a01b0381166000908152602081905260409020545b919050565b6104ab610946565b6104b56000610985565b565b6104c9826104c36105c1565b83610679565b610463828261086e565b60055461010090046001600160a01b031690565b60606004805461034f90610e77565b6000806105016105c1565b9050600061050f828661055f565b90508381101561053a5760405162461bcd60e51b815260040161053190610dc0565b60405180910390fd5b61041d82868684036105c5565b6000806105526105c1565b90506103ea8185856106c3565b6001600160a01b03918216600090815260016020908152604080832093909416825291909152205490565b610592610946565b6001600160a01b0381166105b85760405162461bcd60e51b815260040161053190610bbc565b61047881610985565b3390565b6001600160a01b0383166105eb5760405162461bcd60e51b815260040161053190610d7c565b6001600160a01b0382166106115760405162461bcd60e51b815260040161053190610c02565b6001600160a01b0380841660008181526001602090815260408083209487168084529490915290819020849055517f8c5be1e5ebec7d5bd14f71427d1e84f3dd0314c0f7b2291e5b200ac8c7c3b9259061066c908590610e3c565b60405180910390a3505050565b6000610685848461055f565b905060001981146106bd57818110156106b05760405162461bcd60e51b815260040161053190610c44565b6106bd84848484036105c5565b50505050565b6001600160a01b0383166106e95760405162461bcd60e51b815260040161053190610d37565b6001600160a01b03821661070f5760405162461bcd60e51b815260040161053190610b37565b61071a838383610941565b6001600160a01b038316600090815260208190526040902054818110156107535760405162461bcd60e51b815260040161053190610c7b565b6001600160a01b0380851660008181526020819052604080822086860390559286168082529083902080548601905591517fddf252ad1be2c89b69c2b068fc378daa952ba7f163c4a11628f55a4df523b3ef906107b1908690610e3c565b60405180910390a36106bd848484610941565b6001600160a01b0382166107ea5760405162461bcd60e51b815260040161053190610e05565b6107f660008383610941565b80600260008282546108089190610e53565b90915550506001600160a01b038216600081815260208190526040808220805485019055517fddf252ad1be2c89b69c2b068fc378daa952ba7f163c4a11628f55a4df523b3ef9061085a908590610e3c565b60405180910390a361046360008383610941565b6001600160a01b0382166108945760405162461bcd60e51b815260040161053190610cf6565b6108a082600083610941565b6001600160a01b038216600090815260208190526040902054818110156108d95760405162461bcd60e51b815260040161053190610b7a565b6001600160a01b0383166000818152602081905260408082208585039055600280548690039055519091907fddf252ad1be2c89b69c2b068fc378daa952ba7f163c4a11628f55a4df523b3ef90610931908690610e3c565b60405180910390a3610941836000845b505050565b61094e6105c1565b6001600160a01b031661095f6104d3565b6001600160a01b0316146104b55760405162461bcd60e51b815260040161053190610cc1565b600580546001600160a01b03838116610100818102610100600160a81b031985161790945560405193909204169182907f8be0079c531659141344cd1fd0a4f28419497f9722a3daafe3b4186f6b6457e090600090a35050565b80356001600160a01b038116811461049e57600080fd5b600060208284031215610a07578081fd5b610a10826109df565b9392505050565b60008060408385031215610a29578081fd5b610a32836109df565b9150610a40602084016109df565b90509250929050565b600080600060608486031215610a5d578081fd5b610a66846109df565b9250610a74602085016109df565b9150604084013590509250925092565b60008060408385031215610a96578182fd5b610a9f836109df565b946020939093013593505050565b600060208284031215610abe578081fd5b5035919050565b6001600160a01b0391909116815260200190565b901515815260200190565b6000602080835283518082850152825b81811015610b1057858101830151858201604001528201610af4565b81811115610b215783604083870101525b50601f01601f1916929092016040019392505050565b60208082526023908201527f45524332303a207472616e7366657220746f20746865207a65726f206164647260408201526265737360e81b606082015260800190565b60208082526022908201527f45524332303a206275726e20616d6f756e7420657863656564732062616c616e604082015261636560f01b606082015260800190565b60208082526026908201527f4f776e61626c653a206e6577206f776e657220697320746865207a65726f206160408201526564647265737360d01b606082015260800190565b60208082526022908201527f45524332303a20617070726f766520746f20746865207a65726f206164647265604082015261737360f01b606082015260800190565b6020808252601d908201527f45524332303a20696e73756666696369656e7420616c6c6f77616e6365000000604082015260600190565b60208082526026908201527f45524332303a207472616e7366657220616d6f756e7420657863656564732062604082015265616c616e636560d01b606082015260800190565b6020808252818101527f4f776e61626c653a2063616c6c6572206973206e6f7420746865206f776e6572604082015260600190565b60208082526021908201527f45524332303a206275726e2066726f6d20746865207a65726f206164647265736040820152607360f81b606082015260800190565b60208082526025908201527f45524332303a207472616e736665722066726f6d20746865207a65726f206164604082015264647265737360d81b606082015260800190565b60208082526024908201527f45524332303a20617070726f76652066726f6d20746865207a65726f206164646040820152637265737360e01b606082015260800190565b60208082526025908201527f45524332303a2064656372656173656420616c6c6f77616e63652062656c6f77604082015264207a65726f60d81b606082015260800190565b6020808252601f908201527f45524332303a206d696e7420746f20746865207a65726f206164647265737300604082015260600190565b90815260200190565b60ff91909116815260200190565b60008219821115610e7257634e487b7160e01b81526011600452602481fd5b500190565b600281046001821680610e8b57607f821691505b60208210811415610eac57634e487b7160e01b600052602260045260246000fd5b5091905056fea2646970667358221220b9c7beebe35643ca86b7c83170a951fd72c87005e44785fcc74afdeb1938435e64736f6c63430008000033",
  "immutableReferences": {},
  "source": "//SPDX-License-Identifier: MIT\r\npragma solidity >=0.6.0 <=0.8.9;\r\n// pragma solidity ^0.8.7;\r\n\r\n// import \"https://github.com/OpenZeppelin/openz...\";\r\nimport \"@openzeppelin/contracts/token/ERC20/ERC20.sol\";\r\nimport \"@openzeppelin/contracts/token/ERC20/extensions/ERC20Burnable.sol\";\r\nimport \"@openzeppelin/contracts/security/Pausable.sol\";\r\nimport \"@openzeppelin/contracts/access/Ownable.sol\";\r\n\r\n// import \"https://github.com/OpenZeppelin/openz...\";\r\n// contract BonafideToken is ERC20(\"Bonafide Token\", \"BT\"){\r\n//     constructor(uint256 initialSupply) public ERC20(\"BonafideToken\", \"BT\") {        //token name: MyToken, token symbol: MYT\r\n//         _mint(msg.sender, initialSupply);\r\n//     }\r\n// }\r\n\r\ncontract SupplyDapp is ERC20, ERC20Burnable, Pausable, Ownable {\r\n    address _owner;\r\n    // constructor() ERC20(\"Bonafide Token\", \"BT\") public {\r\n    //     _owner = msg.sender;\r\n    //     _mint(msg.sender, 1000*10**18);\r\n    // }\r\n\r\n\r\n    constructor() ERC20(\"Bonafide Token\", \"BT\") {\r\n        _mint(msg.sender, 1000*10**18);\r\n    }\r\n\r\n    function mint(address to, uint256 amount) public payable {\r\n        _mint(to, amount);\r\n    }\r\n\r\n    function decimals() public view virtual override returns (uint8) {\r\n        return 18; // eg. return 12;\r\n    }\r\n\r\n\r\n}\r\n",
  "sourcePath": "C:/Users/priya/OneDrive/Desktop/BCPRO_v1/bc_pro/contracts/ERC_20.sol",
  "compiler": {
    "name": "solc",
    "version": "0.8.0+commit.c7dfd78e.Emscripten.clang"
  },
  "schemaVersion": "3.3.3",
  "updatedAt": "2022-12-09T03:51:01.749Z",
  "networkType": "ethereum",
  "devdoc": {
    "kind": "dev",
    "methods": {
      "allowance(address,address)": {
        "details": "See {IERC20-allowance}."
      },
      "approve(address,uint256)": {
        "details": "See {IERC20-approve}. NOTE: If `amount` is the maximum `uint256`, the allowance is not updated on `transferFrom`. This is semantically equivalent to an infinite approval. Requirements: - `spender` cannot be the zero address."
      },
      "balanceOf(address)": {
        "details": "See {IERC20-balanceOf}."
      },
      "burn(uint256)": {
        "details": "Destroys `amount` tokens from the caller. See {ERC20-_burn}."
      },
      "burnFrom(address,uint256)": {
        "details": "Destroys `amount` tokens from `account`, deducting from the caller's allowance. See {ERC20-_burn} and {ERC20-allowance}. Requirements: - the caller must have allowance for ``accounts``'s tokens of at least `amount`."
      },
      "decimals()": {
        "details": "Returns the number of decimals used to get its user representation. For example, if `decimals` equals `2`, a balance of `505` tokens should be displayed to a user as `5.05` (`505 / 10 ** 2`). Tokens usually opt for a value of 18, imitating the relationship between Ether and Wei. This is the value {ERC20} uses, unless this function is overridden; NOTE: This information is only used for _display_ purposes: it in no way affects any of the arithmetic of the contract, including {IERC20-balanceOf} and {IERC20-transfer}."
      },
      "decreaseAllowance(address,uint256)": {
        "details": "Atomically decreases the allowance granted to `spender` by the caller. This is an alternative to {approve} that can be used as a mitigation for problems described in {IERC20-approve}. Emits an {Approval} event indicating the updated allowance. Requirements: - `spender` cannot be the zero address. - `spender` must have allowance for the caller of at least `subtractedValue`."
      },
      "increaseAllowance(address,uint256)": {
        "details": "Atomically increases the allowance granted to `spender` by the caller. This is an alternative to {approve} that can be used as a mitigation for problems described in {IERC20-approve}. Emits an {Approval} event indicating the updated allowance. Requirements: - `spender` cannot be the zero address."
      },
      "name()": {
        "details": "Returns the name of the token."
      },
      "owner()": {
        "details": "Returns the address of the current owner."
      },
      "paused()": {
        "details": "Returns true if the contract is paused, and false otherwise."
      },
      "renounceOwnership()": {
        "details": "Leaves the contract without owner. It will not be possible to call `onlyOwner` functions anymore. Can only be called by the current owner. NOTE: Renouncing ownership will leave the contract without an owner, thereby removing any functionality that is only available to the owner."
      },
      "symbol()": {
        "details": "Returns the symbol of the token, usually a shorter version of the name."
      },
      "totalSupply()": {
        "details": "See {IERC20-totalSupply}."
      },
      "transfer(address,uint256)": {
        "details": "See {IERC20-transfer}. Requirements: - `to` cannot be the zero address. - the caller must have a balance of at least `amount`."
      },
      "transferFrom(address,address,uint256)": {
        "details": "See {IERC20-transferFrom}. Emits an {Approval} event indicating the updated allowance. This is not required by the EIP. See the note at the beginning of {ERC20}. NOTE: Does not update the allowance if the current allowance is the maximum `uint256`. Requirements: - `from` and `to` cannot be the zero address. - `from` must have a balance of at least `amount`. - the caller must have allowance for ``from``'s tokens of at least `amount`."
      },
      "transferOwnership(address)": {
        "details": "Transfers ownership of the contract to a new account (`newOwner`). Can only be called by the current owner."
      }
    },
    "version": 1
  },
  "userdoc": {
    "kind": "user",
    "methods": {},
    "version": 1
  }
}