{
  "contractName": "SupplyChain",
  "abi": [
    {
      "inputs": [
        {
          "internalType": "address",
          "name": "tokenAddress",
          "type": "address"
        }
      ],
      "stateMutability": "payable",
      "type": "constructor",
      "payable": true
    },
    {
      "anonymous": false,
      "inputs": [
        {
          "indexed": true,
          "internalType": "address",
          "name": "tokenOwner",
          "type": "address"
        },
        {
          "indexed": true,
          "internalType": "address",
          "name": "spender",
          "type": "address"
        },
        {
          "indexed": false,
          "internalType": "uint256",
          "name": "tokens",
          "type": "uint256"
        }
      ],
      "name": "Approval",
      "type": "event"
    },
    {
      "anonymous": false,
      "inputs": [
        {
          "indexed": false,
          "internalType": "uint256",
          "name": "productID",
          "type": "uint256"
        }
      ],
      "name": "ForSale",
      "type": "event"
    },
    {
      "anonymous": false,
      "inputs": [
        {
          "indexed": false,
          "internalType": "uint256",
          "name": "productID",
          "type": "uint256"
        }
      ],
      "name": "Purchased",
      "type": "event"
    },
    {
      "anonymous": false,
      "inputs": [
        {
          "indexed": false,
          "internalType": "uint256",
          "name": "productID",
          "type": "uint256"
        }
      ],
      "name": "Received",
      "type": "event"
    },
    {
      "anonymous": false,
      "inputs": [
        {
          "indexed": false,
          "internalType": "uint256",
          "name": "productID",
          "type": "uint256"
        }
      ],
      "name": "Shipped",
      "type": "event"
    },
    {
      "anonymous": false,
      "inputs": [
        {
          "indexed": false,
          "internalType": "uint256",
          "name": "productID",
          "type": "uint256"
        }
      ],
      "name": "Sold",
      "type": "event"
    },
    {
      "anonymous": false,
      "inputs": [
        {
          "indexed": true,
          "internalType": "address",
          "name": "from",
          "type": "address"
        },
        {
          "indexed": true,
          "internalType": "address",
          "name": "to",
          "type": "address"
        },
        {
          "indexed": false,
          "internalType": "uint256",
          "name": "tokens",
          "type": "uint256"
        }
      ],
      "name": "Transfer",
      "type": "event"
    },
    {
      "inputs": [],
      "name": "kill",
      "outputs": [],
      "stateMutability": "nonpayable",
      "type": "function"
    },
    {
      "inputs": [
        {
          "internalType": "string",
          "name": "_product",
          "type": "string"
        },
        {
          "internalType": "uint256",
          "name": "_price",
          "type": "uint256"
        },
        {
          "internalType": "string",
          "name": "_brand",
          "type": "string"
        },
        {
          "internalType": "string",
          "name": "_description",
          "type": "string"
        }
      ],
      "name": "createProduct",
      "outputs": [
        {
          "internalType": "uint256",
          "name": "",
          "type": "uint256"
        }
      ],
      "stateMutability": "payable",
      "type": "function",
      "payable": true
    },
    {
      "inputs": [
        {
          "internalType": "string",
          "name": "_hashedEmail",
          "type": "string"
        },
        {
          "internalType": "string",
          "name": "_name",
          "type": "string"
        },
        {
          "internalType": "string",
          "name": "_phone",
          "type": "string"
        }
      ],
      "name": "createManufacturer",
      "outputs": [
        {
          "internalType": "bool",
          "name": "",
          "type": "bool"
        }
      ],
      "stateMutability": "payable",
      "type": "function",
      "payable": true
    },
    {
      "inputs": [
        {
          "internalType": "address",
          "name": "_acc",
          "type": "address"
        }
      ],
      "name": "GetUserTokenBalance",
      "outputs": [
        {
          "internalType": "uint256",
          "name": "",
          "type": "uint256"
        }
      ],
      "stateMutability": "view",
      "type": "function",
      "constant": true
    },
    {
      "inputs": [
        {
          "internalType": "address",
          "name": "receiver",
          "type": "address"
        },
        {
          "internalType": "uint256",
          "name": "numTokens",
          "type": "uint256"
        }
      ],
      "name": "TestTransfer",
      "outputs": [
        {
          "internalType": "bool",
          "name": "",
          "type": "bool"
        }
      ],
      "stateMutability": "nonpayable",
      "type": "function"
    },
    {
      "inputs": [
        {
          "internalType": "address",
          "name": "acc",
          "type": "address"
        }
      ],
      "name": "add_mint",
      "outputs": [
        {
          "internalType": "bool",
          "name": "",
          "type": "bool"
        }
      ],
      "stateMutability": "nonpayable",
      "type": "function"
    },
    {
      "inputs": [
        {
          "internalType": "string",
          "name": "_product",
          "type": "string"
        }
      ],
      "name": "getProductDetails1",
      "outputs": [
        {
          "internalType": "string",
          "name": "",
          "type": "string"
        },
        {
          "internalType": "uint256",
          "name": "",
          "type": "uint256"
        },
        {
          "internalType": "uint256",
          "name": "",
          "type": "uint256"
        },
        {
          "internalType": "address",
          "name": "",
          "type": "address"
        }
      ],
      "stateMutability": "view",
      "type": "function",
      "constant": true
    },
    {
      "inputs": [
        {
          "internalType": "string",
          "name": "_product",
          "type": "string"
        }
      ],
      "name": "getProductDetails2",
      "outputs": [
        {
          "internalType": "enum SupplyChain.State",
          "name": "",
          "type": "uint8"
        },
        {
          "internalType": "string",
          "name": "",
          "type": "string"
        }
      ],
      "stateMutability": "view",
      "type": "function",
      "constant": true
    },
    {
      "inputs": [
        {
          "internalType": "string",
          "name": "_product",
          "type": "string"
        }
      ],
      "name": "getProductRetailerDetails",
      "outputs": [
        {
          "internalType": "string[][2]",
          "name": "",
          "type": "string[][2]"
        }
      ],
      "stateMutability": "view",
      "type": "function",
      "constant": true
    },
    {
      "inputs": [
        {
          "internalType": "string",
          "name": "_hashedEmail",
          "type": "string"
        },
        {
          "internalType": "string",
          "name": "_name",
          "type": "string"
        },
        {
          "internalType": "string",
          "name": "_phone",
          "type": "string"
        },
        {
          "internalType": "address",
          "name": "toAddress",
          "type": "address"
        }
      ],
      "name": "createCustomer",
      "outputs": [
        {
          "internalType": "bool",
          "name": "",
          "type": "bool"
        }
      ],
      "stateMutability": "payable",
      "type": "function",
      "payable": true
    },
    {
      "inputs": [
        {
          "internalType": "string",
          "name": "_hashedEmail",
          "type": "string"
        }
      ],
      "name": "getConsumerDetails",
      "outputs": [
        {
          "internalType": "string",
          "name": "",
          "type": "string"
        },
        {
          "internalType": "string",
          "name": "",
          "type": "string"
        }
      ],
      "stateMutability": "view",
      "type": "function",
      "constant": true
    },
    {
      "inputs": [
        {
          "internalType": "string",
          "name": "_hashedEmail",
          "type": "string"
        },
        {
          "internalType": "string",
          "name": "_sellerName",
          "type": "string"
        },
        {
          "internalType": "string",
          "name": "_sellerLocation",
          "type": "string"
        },
        {
          "internalType": "address",
          "name": "toAddress",
          "type": "address"
        }
      ],
      "name": "createSeller",
      "outputs": [
        {
          "internalType": "uint256",
          "name": "",
          "type": "uint256"
        }
      ],
      "stateMutability": "payable",
      "type": "function",
      "payable": true
    },
    {
      "inputs": [
        {
          "internalType": "string",
          "name": "_hashedEmail",
          "type": "string"
        }
      ],
      "name": "getSellerDetails",
      "outputs": [
        {
          "internalType": "string",
          "name": "",
          "type": "string"
        },
        {
          "internalType": "string",
          "name": "",
          "type": "string"
        }
      ],
      "stateMutability": "view",
      "type": "function",
      "constant": true
    },
    {
      "inputs": [
        {
          "internalType": "uint256",
          "name": "flag",
          "type": "uint256"
        },
        {
          "internalType": "string",
          "name": "_hashedEmail",
          "type": "string"
        }
      ],
      "name": "getProducts",
      "outputs": [
        {
          "internalType": "string[]",
          "name": "",
          "type": "string[]"
        }
      ],
      "stateMutability": "view",
      "type": "function",
      "constant": true
    },
    {
      "inputs": [
        {
          "internalType": "string",
          "name": "_product",
          "type": "string"
        },
        {
          "internalType": "string",
          "name": "_consumer",
          "type": "string"
        },
        {
          "internalType": "string",
          "name": "_seller",
          "type": "string"
        }
      ],
      "name": "ConsumerBuys",
      "outputs": [
        {
          "internalType": "bool",
          "name": "",
          "type": "bool"
        }
      ],
      "stateMutability": "payable",
      "type": "function",
      "payable": true
    },
    {
      "inputs": [
        {
          "internalType": "string",
          "name": "_product",
          "type": "string"
        }
      ],
      "name": "ShipProduct",
      "outputs": [],
      "stateMutability": "nonpayable",
      "type": "function"
    },
    {
      "inputs": [
        {
          "internalType": "string",
          "name": "_product",
          "type": "string"
        }
      ],
      "name": "receiveItem",
      "outputs": [],
      "stateMutability": "nonpayable",
      "type": "function"
    },
    {
      "inputs": [
        {
          "internalType": "string",
          "name": "_product",
          "type": "string"
        }
      ],
      "name": "purchaseItem",
      "outputs": [],
      "stateMutability": "nonpayable",
      "type": "function"
    },
    {
      "inputs": [
        {
          "internalType": "string",
          "name": "_product",
          "type": "string"
        },
        {
          "internalType": "string",
          "name": "_fromseller",
          "type": "string"
        },
        {
          "internalType": "string",
          "name": "_toseller",
          "type": "string"
        }
      ],
      "name": "RetailertoRetailer",
      "outputs": [
        {
          "internalType": "bool",
          "name": "",
          "type": "bool"
        }
      ],
      "stateMutability": "payable",
      "type": "function",
      "payable": true
    },
    {
      "inputs": [
        {
          "internalType": "string",
          "name": "_product",
          "type": "string"
        },
        {
          "internalType": "string",
          "name": "_retailer",
          "type": "string"
        }
      ],
      "name": "InitialOwner",
      "outputs": [
        {
          "internalType": "bool",
          "name": "",
          "type": "bool"
        }
      ],
      "stateMutability": "payable",
      "type": "function",
      "payable": true
    },
    {
      "inputs": [
        {
          "internalType": "string",
          "name": "_product",
          "type": "string"
        },
        {
          "internalType": "string",
          "name": "_retailer",
          "type": "string"
        }
      ],
      "name": "checkFakeProd",
      "outputs": [
        {
          "internalType": "bool",
          "name": "",
          "type": "bool"
        }
      ],
      "stateMutability": "payable",
      "type": "function",
      "payable": true
    },
    {
      "inputs": [
        {
          "internalType": "string",
          "name": "_consumer",
          "type": "string"
        },
        {
          "internalType": "string",
          "name": "_product",
          "type": "string"
        }
      ],
      "name": "reportproductstolen",
      "outputs": [
        {
          "internalType": "bool",
          "name": "",
          "type": "bool"
        }
      ],
      "stateMutability": "payable",
      "type": "function",
      "payable": true
    },
    {
      "inputs": [
        {
          "internalType": "string",
          "name": "_consumer",
          "type": "string"
        },
        {
          "internalType": "string",
          "name": "_product",
          "type": "string"
        }
      ],
      "name": "returnproduct",
      "outputs": [
        {
          "internalType": "bool",
          "name": "",
          "type": "bool"
        }
      ],
      "stateMutability": "payable",
      "type": "function",
      "payable": true
    }
  ],
  "bytecode": "0x60806040526040516200402338038062004023833981016040819052620000269162000058565b600280546001600160a01b039092166001600160a01b0319928316179055600180549091163317815560005562000088565b6000602082840312156200006a578081fd5b81516001600160a01b038116811462000081578182fd5b9392505050565b613f8b80620000986000396000f3fe6080604052600436106101405760003560e01c80635da3ed86116100b6578063a6f43d501161006f578063a6f43d501461035d578063c366906314610370578063d55f69f61461039d578063dc7c1d0b146103bd578063e962493a146103dd578063eb173fe9146103f057610140565b80635da3ed861461029c57806372f45bcd146102c9578063886ed83c146102e957806388a2aa43146102fc5780638f48e7221461031c578063921cc6b51461032f57610140565b806339316b711161010857806339316b71146101e257806341c0e1b5146102025780634975671b146102195780634d1cd3e814610249578063527ff4601461025c578063529903751461027c57610140565b806307877cff146101455780630ec8aa751461016e5780631a792c881461018e57806325df3923146101a157806327029b64146101cf575b600080fd5b6101586101533660046139cd565b610403565b6040516101659190613e6b565b60405180910390f35b61018161017c366004613853565b6105d2565b6040516101659190613c0f565b61018161019c366004613853565b610892565b3480156101ad57600080fd5b506101c16101bc366004613820565b610a25565b604051610165929190613c4f565b6101816101dd3660046138b4565b610b88565b3480156101ee57600080fd5b506101816101fd3660046137bd565b61163b565b34801561020e57600080fd5b506102176116b3565b005b34801561022557600080fd5b50610239610234366004613820565b6116d6565b6040516101659493929190613c7d565b610181610257366004613853565b61180a565b34801561026857600080fd5b50610217610277366004613820565b611c0f565b34801561028857600080fd5b50610217610297366004613820565b611d67565b3480156102a857600080fd5b506102bc6102b7366004613a73565b611e99565b6040516101659190613baf565b3480156102d557600080fd5b506102176102e4366004613820565b612095565b6101816102f73660046138b4565b6121c6565b34801561030857600080fd5b506101586103173660046137bd565b612a18565b61018161032a366004613938565b612a99565b34801561033b57600080fd5b5061034f61034a366004613820565b612bd0565b604051610165929190613c1a565b61018161036b3660046138b4565b612c26565b34801561037c57600080fd5b5061039061038b366004613820565b612d5c565b6040516101659190613b23565b3480156103a957600080fd5b506101c16103b8366004613820565b61309d565b3480156103c957600080fd5b506101816103d83660046137d7565b6130ce565b6101816103eb366004613853565b613173565b6101586103fe366004613938565b6132de565b600061040d613427565b6020810184905260408082018690523360c083015260008054835260608301526001608083015260a0820184905251819060049061044c908990613ada565b908152602001604051809103902060008201518160000155602082015181600101908051906020019061048092919061349f565b5060408201516002820155606082015160038201805460ff191660018360048111156104bc57634e487b7160e01b600052602160045260246000fd5b02179055506080820151600482015560a082015180516104e691600584019160209091019061349f565b5060c08201516006820180546001600160a01b039283166001600160a01b03199182161790915560e0840151600784018054919093169116179055610100820151805161053d916008840191602090910190613523565b506101208201516009820180546001600160a01b03199081166001600160a01b039384161790915561014090930151600a90920180549093169116179055600054610589906001613e74565b60008190556040517fa96ae0fc3224ebd79eebfe54bd130cc9cb94416cddd1f2386115e00b72532468916105bc91613e6b565b60405180910390a160019150505b949350505050565b6000806004846040516105e59190613ada565b9081526020016040518091039020604051806101600160405290816000820154815260200160018201805461061990613ed3565b80601f016020809104026020016040519081016040528092919081815260200182805461064590613ed3565b80156106925780601f1061066757610100808354040283529160200191610692565b820191906000526020600020905b81548152906001019060200180831161067557829003601f168201915b505050918352505060028201546020820152600382015460409091019060ff1660048111156106d157634e487b7160e01b600052602160045260246000fd5b60048111156106f057634e487b7160e01b600052602160045260246000fd5b81526020016004820154815260200160058201805461070e90613ed3565b80601f016020809104026020016040519081016040528092919081815260200182805461073a90613ed3565b80156107875780601f1061075c57610100808354040283529160200191610787565b820191906000526020600020905b81548152906001019060200180831161076a57829003601f168201915b505050918352505060068201546001600160a01b039081166020808401919091526007840154909116604080840191909152600884018054825181850281018501909352808352606090940193919290919083018282801561081257602002820191906000526020600020905b81546001600160a01b031681526001909101906020018083116107f4575b505050918352505060098201546001600160a01b039081166020830152600a9092015490911660409182015251909150600690610850908590613ada565b908152604051908190036020019020600301546101208201516001600160a01b039081169116141561088657600191505061088c565b60009150505b92915050565b60006006826040516108a49190613ada565b9081526040519081900360200190206005015460ff1615610a1c576004836040516108cf9190613ada565b90815260200160405180910390206008016006836040516108f09190613ada565b90815260405190819003602090810182206003015483546001810185556000948552919093200180546001600160a01b0319166001600160a01b0390931692909217909155600690610943908490613ada565b908152604051908190036020018120600301546001600160a01b03169060049061096e908690613ada565b908152602001604051809103902060090160006101000a8154816001600160a01b0302191690836001600160a01b0316021790555060026004846040516109b59190613ada565b9081526020016040518091039020600401819055506006826040516109da9190613ada565b9081526040516020918190038201902060020180546001810182556000918252908290208551610a129391909201919086019061349f565b506001905061088c565b50600092915050565b606080600583604051610a389190613ada565b90815260405190819003602001812090600590610a56908690613ada565b9081526020016040518091039020600101818054610a7390613ed3565b80601f0160208091040260200160405190810160405280929190818152602001828054610a9f90613ed3565b8015610aec5780601f10610ac157610100808354040283529160200191610aec565b820191906000526020600020905b815481529060010190602001808311610acf57829003601f168201915b50505050509150808054610aff90613ed3565b80601f0160208091040260200160405190810160405280929190818152602001828054610b2b90613ed3565b8015610b785780601f10610b4d57610100808354040283529160200191610b78565b820191906000526020600020905b815481529060010190602001808311610b5b57829003601f168201915b5050505050905091509150915091565b60008381600482604051610b9c9190613ada565b9081526040519081900360200190206003015460ff166004811115610bd157634e487b7160e01b600052602160045260246000fd5b14610bf75760405162461bcd60e51b8152600401610bee90613cf6565b60405180910390fd5b600485604051610c079190613ada565b90815260200160405180910390206002015480341015610c395760405162461bcd60e51b8152600401610bee90613d3d565b85600080600090506000600688604051610c539190613ada565b90815260200160405180910390206040518060c0016040529081600082018054610c7c90613ed3565b80601f0160208091040260200160405190810160405280929190818152602001828054610ca890613ed3565b8015610cf55780601f10610cca57610100808354040283529160200191610cf5565b820191906000526020600020905b815481529060010190602001808311610cd857829003601f168201915b50505050508152602001600182018054610d0e90613ed3565b80601f0160208091040260200160405190810160405280929190818152602001828054610d3a90613ed3565b8015610d875780601f10610d5c57610100808354040283529160200191610d87565b820191906000526020600020905b815481529060010190602001808311610d6a57829003601f168201915b5050505050815260200160028201805480602002602001604051908101604052809291908181526020016000905b82821015610e61578382906000526020600020018054610dd490613ed3565b80601f0160208091040260200160405190810160405280929190818152602001828054610e0090613ed3565b8015610e4d5780601f10610e2257610100808354040283529160200191610e4d565b820191906000526020600020905b815481529060010190602001808311610e3057829003601f168201915b505050505081526020019060010190610db5565b5050509082525060038201546001600160a01b03166020820152600482018054604090920191610e9090613ed3565b80601f0160208091040260200160405190810160405280929190818152602001828054610ebc90613ed3565b8015610f095780601f10610ede57610100808354040283529160200191610f09565b820191906000526020600020905b815481529060010190602001808311610eec57829003601f168201915b505050918352505060059182015460ff1615156020909101526040808301515190519293509160009190610f3e908d90613ada565b90815260200160405180910390206040518060c0016040529081600082018054610f6790613ed3565b80601f0160208091040260200160405190810160405280929190818152602001828054610f9390613ed3565b8015610fe05780601f10610fb557610100808354040283529160200191610fe0565b820191906000526020600020905b815481529060010190602001808311610fc357829003601f168201915b50505050508152602001600182018054610ff990613ed3565b80601f016020809104026020016040519081016040528092919081815260200182805461102590613ed3565b80156110725780601f1061104757610100808354040283529160200191611072565b820191906000526020600020905b81548152906001019060200180831161105557829003601f168201915b5050505050815260200160028201805480602002602001604051908101604052809291908181526020016000905b8282101561114c5783829060005260206000200180546110bf90613ed3565b80601f01602080910402602001604051908101604052809291908181526020018280546110eb90613ed3565b80156111385780601f1061110d57610100808354040283529160200191611138565b820191906000526020600020905b81548152906001019060200180831161111b57829003601f168201915b5050505050815260200190600101906110a0565b5050509082525060038201546001600160a01b0316602082015260048201805460409092019161117b90613ed3565b80601f01602080910402602001604051908101604052809291908181526020018280546111a790613ed3565b80156111f45780601f106111c9576101008083540402835291602001916111f4565b820191906000526020600020905b8154815290600101906020018083116111d757829003601f168201915b50505091835250506005919091015460ff16151560209091015260a0840151909150801561122357508060a001515b1561159d5782606001516001600160a01b031660048d6040516112469190613ada565b908152604051908190036020019020600901546001600160a01b0316141561126d57600193505b6001841515141561159d57600094505b8185101561159d5761136160068b6040516112989190613ada565b908152602001604051809103902060020186815481106112c857634e487b7160e01b600052603260045260246000fd5b9060005260206000200180546112dd90613ed3565b80601f016020809104026020016040519081016040528092919081815260200182805461130990613ed3565b80156113565780601f1061132b57610100808354040283529160200191611356565b820191906000526020600020905b81548152906001019060200180831161133957829003601f168201915b50505050508d613319565b1561158b576113908560068c60405161137a9190613ada565b908152602001604051809103902060020161332f565b5060058b6040516113a19190613ada565b9081526040516020918190038201902060020180546001810182556000918252908290208e516113d9939190920191908f019061349f565b50806060015160048d6040516113ef9190613ada565b908152602001604051809103902060070160006101000a8154816001600160a01b0302191690836001600160a01b03160217905550806060015160048d6040516114399190613ada565b908152602001604051809103902060090160006101000a8154816001600160a01b0302191690836001600160a01b03160217905550826060015160048d6040516114839190613ada565b9081526020016040518091039020600a0160006101000a8154816001600160a01b0302191690836001600160a01b03160217905550600160048d6040516114ca9190613ada565b908152604051908190036020019020600301805460ff1916600183600481111561150457634e487b7160e01b600052602160045260246000fd5b0217905550600360048d60405161151b9190613ada565b9081526020016040518091039020600401819055507f92f64ca637d023f354075a4be751b169c1a8a9ccb6d33cdd0cb352054399572760048d6040516115619190613ada565b9081526040519081900360200181205461157a91613e6b565b60405180910390a16001935061159d565b8461159581613f0e565b95505061127d565b5091965050505060006004826040516115b69190613ada565b90815260405190819003602001902060020154905060006115d78234613e8c565b90506004836040516115e99190613ada565b908152604051908190036020018120600701546001600160a01b03169082156108fc029083906000818181858888f1935050505015801561162e573d6000803e3d6000fd5b5050505050509392505050565b6002546040516340c10f1960e01b81526000916001600160a01b0316906340c10f1990611677908590683635c9adc5dea0000090600401613b0a565b600060405180830381600087803b15801561169157600080fd5b505af11580156116a5573d6000803e3d6000fd5b50505050600190505b919050565b6001546001600160a01b03163314156116d4576001546001600160a01b0316ff5b565b606060008060006004856040516116ed9190613ada565b908152602001604051809103902060010160048660405161170e9190613ada565b908152604051908190036020018120549060049061172d908990613ada565b90815260200160405180910390206002015460048860405161174f9190613ada565b9081526040519081900360200190206006015483546001600160a01b0390911690849061177b90613ed3565b80601f01602080910402602001604051908101604052809291908181526020018280546117a790613ed3565b80156117f45780601f106117c9576101008083540402835291602001916117f4565b820191906000526020600020905b8154815290600101906020018083116117d757829003601f168201915b5050505050935093509350935093509193509193565b600060058360405161181c9190613ada565b9081526040519081900360200190206005015460ff1615610a1c5760006004836040516118499190613ada565b90815260200160405180910390206008018054905090506000600760006004866040516118769190613ada565b908152604051908190036020019020600801611893600186613e8c565b815481106118b157634e487b7160e01b600052603260045260246000fd5b60009182526020808320909101546001600160a01b03168352820192909252604001902080546118e090613ed3565b80601f016020809104026020016040519081016040528092919081815260200182805461190c90613ed3565b80156119595780601f1061192e57610100808354040283529160200191611959565b820191906000526020600020905b81548152906001019060200180831161193c57829003601f168201915b505050505090506006816040516119709190613ada565b9081526040519081900360200190206005015460ff1615611c045760048460405161199b9190613ada565b9081526040519081900360200190206008016119b8600184613e8c565b815481106119d657634e487b7160e01b600052603260045260246000fd5b6000918252602090912001546040516001600160a01b03909116906004906119ff908790613ada565b908152602001604051809103902060090160006101000a8154816001600160a01b0302191690836001600160a01b031602179055506000600485604051611a469190613ada565b90815260405190819003602001902060070180546001600160a01b03929092166001600160a01b031990921691909117905560005b600586604051611a8b9190613ada565b90815260405190819003602001902060020154811015611c0257611b81600587604051611ab89190613ada565b90815260200160405180910390206002018281548110611ae857634e487b7160e01b600052603260045260246000fd5b906000526020600020018054611afd90613ed3565b80601f0160208091040260200160405190810160405280929190818152602001828054611b2990613ed3565b8015611b765780601f10611b4b57610100808354040283529160200191611b76565b820191906000526020600020905b815481529060010190602001808311611b5957829003601f168201915b505050505086613319565b15611bf057600682604051611b969190613ada565b9081526040516020918190038201902060020180546001810182556000918252908290208751611bce9391909201919088019061349f565b50611be38160058860405161137a9190613ada565b506001935050505061088c565b80611bfa81613f0e565b915050611a7b565b505b505050600092915050565b806001600482604051611c229190613ada565b9081526040519081900360200190206003015460ff166004811115611c5757634e487b7160e01b600052602160045260246000fd5b14611c745760405162461bcd60e51b8152600401610bee90613cb5565b600482604051611c849190613ada565b908152604051908190036020019020600a01546001600160a01b0316338114611cbf5760405162461bcd60e51b8152600401610bee90613e34565b6002600484604051611cd19190613ada565b908152604051908190036020019020600301805460ff19166001836004811115611d0b57634e487b7160e01b600052602160045260246000fd5b02179055507ff00b9a5725b80c54016f42114f6ed7792d22eecb116011c4afac29c57bef6c95600484604051611d419190613ada565b90815260405190819003602001812054611d5a91613e6b565b60405180910390a1505050565b806002600482604051611d7a9190613ada565b9081526040519081900360200190206003015460ff166004811115611daf57634e487b7160e01b600052602160045260246000fd5b14611dcc5760405162461bcd60e51b8152600401610bee90613da7565b600482604051611ddc9190613ada565b908152604051908190036020019020600901546001600160a01b0316338114611e175760405162461bcd60e51b8152600401610bee90613e34565b6003600484604051611e299190613ada565b908152604051908190036020019020600301805460ff19166001836004811115611e6357634e487b7160e01b600052602160045260246000fd5b02179055507fa8142743f8f70a4c26f3691cf4ed59718381fb2f18070ec52be1f1022d855557600484604051611d419190613ada565b60608260011415611f9c57600582604051611eb49190613ada565b9081526020016040518091039020600201805480602002602001604051908101604052809291908181526020016000905b82821015611f91578382906000526020600020018054611f0490613ed3565b80601f0160208091040260200160405190810160405280929190818152602001828054611f3090613ed3565b8015611f7d5780601f10611f5257610100808354040283529160200191611f7d565b820191906000526020600020905b815481529060010190602001808311611f6057829003601f168201915b505050505081526020019060010190611ee5565b50505050905061088c565b600682604051611fac9190613ada565b9081526020016040518091039020600201805480602002602001604051908101604052809291908181526020016000905b82821015612089578382906000526020600020018054611ffc90613ed3565b80601f016020809104026020016040519081016040528092919081815260200182805461202890613ed3565b80156120755780601f1061204a57610100808354040283529160200191612075565b820191906000526020600020905b81548152906001019060200180831161205857829003601f168201915b505050505081526020019060010190611fdd565b50505050905092915050565b8060036004826040516120a89190613ada565b9081526040519081900360200190206003015460ff1660048111156120dd57634e487b7160e01b600052602160045260246000fd5b146120fa5760405162461bcd60e51b8152600401610bee90613ded565b60048260405161210a9190613ada565b908152604051908190036020019020600901546001600160a01b03163381146121455760405162461bcd60e51b8152600401610bee90613e34565b600480846040516121569190613ada565b908152604051908190036020019020600301805460ff1916600183600481111561219057634e487b7160e01b600052602160045260246000fd5b02179055507f653d56639fee6b566a5c804764e9689de38645f0b733df89a36a1b7b42173dd8600484604051611d419190613ada565b6000806000806006866040516121dc9190613ada565b90815260200160405180910390206040518060c001604052908160008201805461220590613ed3565b80601f016020809104026020016040519081016040528092919081815260200182805461223190613ed3565b801561227e5780601f106122535761010080835404028352916020019161227e565b820191906000526020600020905b81548152906001019060200180831161226157829003601f168201915b5050505050815260200160018201805461229790613ed3565b80601f01602080910402602001604051908101604052809291908181526020018280546122c390613ed3565b80156123105780601f106122e557610100808354040283529160200191612310565b820191906000526020600020905b8154815290600101906020018083116122f357829003601f168201915b5050505050815260200160028201805480602002602001604051908101604052809291908181526020016000905b828210156123ea57838290600052602060002001805461235d90613ed3565b80601f016020809104026020016040519081016040528092919081815260200182805461238990613ed3565b80156123d65780601f106123ab576101008083540402835291602001916123d6565b820191906000526020600020905b8154815290600101906020018083116123b957829003601f168201915b50505050508152602001906001019061233e565b5050509082525060038201546001600160a01b0316602082015260048201805460409092019161241990613ed3565b80601f016020809104026020016040519081016040528092919081815260200182805461244590613ed3565b80156124925780601f1061246757610100808354040283529160200191612492565b820191906000526020600020905b81548152906001019060200180831161247557829003601f168201915b50505091835250506005919091015460ff1615156020909101526040519091506000906006906124c3908890613ada565b90815260200160405180910390206040518060c00160405290816000820180546124ec90613ed3565b80601f016020809104026020016040519081016040528092919081815260200182805461251890613ed3565b80156125655780601f1061253a57610100808354040283529160200191612565565b820191906000526020600020905b81548152906001019060200180831161254857829003601f168201915b5050505050815260200160018201805461257e90613ed3565b80601f01602080910402602001604051908101604052809291908181526020018280546125aa90613ed3565b80156125f75780601f106125cc576101008083540402835291602001916125f7565b820191906000526020600020905b8154815290600101906020018083116125da57829003601f168201915b5050505050815260200160028201805480602002602001604051908101604052809291908181526020016000905b828210156126d157838290600052602060002001805461264490613ed3565b80601f016020809104026020016040519081016040528092919081815260200182805461267090613ed3565b80156126bd5780601f10612692576101008083540402835291602001916126bd565b820191906000526020600020905b8154815290600101906020018083116126a057829003601f168201915b505050505081526020019060010190612625565b5050509082525060038201546001600160a01b0316602082015260048201805460409092019161270090613ed3565b80601f016020809104026020016040519081016040528092919081815260200182805461272c90613ed3565b80156127795780601f1061274e57610100808354040283529160200191612779565b820191906000526020600020905b81548152906001019060200180831161275c57829003601f168201915b50505091835250506005919091015460ff16151560209091015260408301515160a08401519192509080156127af57508160a001515b15612a095782606001516001600160a01b031660048a6040516127d29190613ada565b908152604051908190036020019020600901546001600160a01b031614156127f957600193505b60018415151415612a0957600094505b80851015612a09576128ed6006896040516128249190613ada565b9081526020016040518091039020600201868154811061285457634e487b7160e01b600052603260045260246000fd5b90600052602060002001805461286990613ed3565b80601f016020809104026020016040519081016040528092919081815260200182805461289590613ed3565b80156128e25780601f106128b7576101008083540402835291602001916128e2565b820191906000526020600020905b8154815290600101906020018083116128c557829003601f168201915b50505050508a613319565b156129f7576129068560068a60405161137a9190613ada565b506006876040516129179190613ada565b9081526040516020918190038201902060020180546001810182556000918252908290208b5161294f939190920191908c019061349f565b506004896040516129609190613ada565b9081526040516020918190038201812060608501805160089092018054600181018255600091825294902090930180546001600160a01b0319166001600160a01b039092169190911790559051906004906129bc908c90613ada565b90815260405190819003602001902060090180546001600160a01b03929092166001600160a01b031990921691909117905560019350612a09565b84612a0181613f0e565b955050612809565b509193505050505b9392505050565b6002546040516370a0823160e01b81526000916001600160a01b0316906370a0823190612a49908590600401613af6565b60206040518083038186803b158015612a6157600080fd5b505afa158015612a75573d6000803e3d6000fd5b505050506040513d601f19601f8201168201806040525081019061088c9190613a5b565b6000600585604051612aab9190613ada565b9081526040519081900360200190206005015460ff1615612ace575060006105ca565b612ad6613578565b84815260208101849052600160a0820152608081018690523360608201526040518190600590612b07908990613ada565b90815260200160405180910390206000820151816000019080519060200190612b3192919061349f565b506020828101518051612b4a926001850192019061349f565b5060408201518051612b669160028401916020909101906135b9565b5060608201516003820180546001600160a01b0319166001600160a01b0390921691909117905560808201518051612ba891600484019160209091019061349f565b5060a091909101516005909101805460ff191691151591909117905550600195945050505050565b60006060600483604051612be49190613ada565b9081526040519081900360200181206003015460ff1690600490612c09908690613ada565b9081526020016040518091039020600501808054610aff90613ed3565b6000600384604051612c389190613ada565b9081526040519081900360200190206005015460ff1615612c5b57506000612a11565b612c63613578565b83815260208101839052600160a0820152608081018590523360608201526040518190600390612c94908890613ada565b90815260200160405180910390206000820151816000019080519060200190612cbe92919061349f565b506020828101518051612cd7926001850192019061349f565b5060408201518051612cf39160028401916020909101906135b9565b5060608201516003820180546001600160a01b0319166001600160a01b0390921691909117905560808201518051612d3591600484019160209091019061349f565b5060a091909101516005909101805460ff1916911515919091179055506001949350505050565b612d64613612565b6000600483604051612d769190613ada565b9081526040519081900360200190206008015490506000612d95613612565b600091505b828210156105ca57600060076000600488604051612db89190613ada565b90815260200160405180910390206008018581548110612de857634e487b7160e01b600052603260045260246000fd5b60009182526020808320909101546001600160a01b0316835282019290925260400190208054612e1790613ed3565b80601f0160208091040260200160405190810160405280929190818152602001828054612e4390613ed3565b8015612e905780601f10612e6557610100808354040283529160200191612e90565b820191906000526020600020905b815481529060010190602001808311612e7357829003601f168201915b50505050509050600681604051612ea79190613ada565b9081526040519081900360200190208054612ec190613ed3565b80601f0160208091040260200160405190810160405280929190818152602001828054612eed90613ed3565b8015612f3a5780601f10612f0f57610100808354040283529160200191612f3a565b820191906000526020600020905b815481529060010190602001808311612f1d57829003601f168201915b5050505050828460028110612f5f57634e487b7160e01b600052603260045260246000fd5b6020020151600081518110612f8457634e487b7160e01b600052603260045260246000fd5b6020026020010181905250600681604051612f9f9190613ada565b90815260200160405180910390206001018054612fbb90613ed3565b80601f0160208091040260200160405190810160405280929190818152602001828054612fe790613ed3565b80156130345780601f1061300957610100808354040283529160200191613034565b820191906000526020600020905b81548152906001019060200180831161301757829003601f168201915b505050505082846002811061305957634e487b7160e01b600052603260045260246000fd5b602002015160018151811061307e57634e487b7160e01b600052603260045260246000fd5b602002602001018190525050818061309590613f0e565b925050612d9a565b6060806006836040516130b09190613ada565b90815260405190819003602001812090600690610a56908690613ada565b60006130d933612a18565b8211156130e557600080fd5b60025460405163a9059cbb60e01b81526001600160a01b039091169063a9059cbb906131179086908690600401613b0a565b602060405180830381600087803b15801561313157600080fd5b505af1158015613145573d6000803e3d6000fd5b505050506040513d601f19601f820116820180604052508101906131699190613800565b5060019392505050565b6000806005846040516131869190613ada565b9081526040519081900360200190206005015460ff1615610886575060006005846040516131b49190613ada565b90815260405190819003602001902060020154811015610886576132aa6005856040516131e19190613ada565b9081526020016040518091039020600201828154811061321157634e487b7160e01b600052603260045260246000fd5b90600052602060002001805461322690613ed3565b80601f016020809104026020016040519081016040528092919081815260200182805461325290613ed3565b801561329f5780601f106132745761010080835404028352916020019161329f565b820191906000526020600020905b81548152906001019060200180831161328257829003601f168201915b505050505084613319565b156132d457600480846040516132c09190613ada565b908152604051908190036020019020600401555b600191505061088c565b60006132e8613578565b8481526020810184905260808101869052336060820152600160a08201526040518190600690612b07908990613ada565b8051602091820120825192909101919091201490565b805460009083106133425750600061088c565b825b825461335290600190613e8c565b8110156133e15782613365826001613e74565b8154811061338357634e487b7160e01b600052603260045260246000fd5b906000526020600020018382815481106133ad57634e487b7160e01b600052603260045260246000fd5b906000526020600020019080546133c390613ed3565b6133ce929190613639565b50806133d981613f0e565b915050613344565b508180548061340057634e487b7160e01b600052603160045260246000fd5b60019003818190600052602060002001600061341c91906136b4565b905550600192915050565b6040518061016001604052806000815260200160608152602001600081526020016000600481111561346957634e487b7160e01b600052602160045260246000fd5b81526000602082018190526060604083018190528083018290526080830182905260a083015260c0820181905260e09091015290565b8280546134ab90613ed3565b90600052602060002090601f0160209004810192826134cd5760008555613513565b82601f106134e657805160ff1916838001178555613513565b82800160010185558215613513579182015b828111156135135782518255916020019190600101906134f8565b5061351f9291506136f3565b5090565b828054828255906000526020600020908101928215613513579160200282015b8281111561351357825182546001600160a01b0319166001600160a01b03909116178255602090920191600190910190613543565b6040518060c0016040528060608152602001606081526020016060815260200160006001600160a01b03168152602001606081526020016000151581525090565b828054828255906000526020600020908101928215613606579160200282015b8281111561360657825180516135f691849160209091019061349f565b50916020019190600101906135d9565b5061351f929150613708565b60405180604001604052806002905b60608152602001906001900390816136215790505090565b82805461364590613ed3565b90600052602060002090601f0160209004810192826136675760008555613513565b82601f106136785780548555613513565b8280016001018555821561351357600052602060002091601f016020900482015b82811115613513578254825591600101919060010190613699565b5080546136c090613ed3565b6000825580601f106136d257506136f0565b601f0160209004906000526020600020908101906136f091906136f3565b50565b5b8082111561351f57600081556001016136f4565b8082111561351f57600061371c82826136b4565b50600101613708565b80356001600160a01b03811681146116ae57600080fd5b600082601f83011261374c578081fd5b813567ffffffffffffffff8082111561376757613767613f3f565b604051601f8301601f19168101602001828111828210171561378b5761378b613f3f565b6040528281528483016020018610156137a2578384fd5b82602086016020830137918201602001929092529392505050565b6000602082840312156137ce578081fd5b612a1182613725565b600080604083850312156137e9578081fd5b6137f283613725565b946020939093013593505050565b600060208284031215613811578081fd5b81518015158114612a11578182fd5b600060208284031215613831578081fd5b813567ffffffffffffffff811115613847578182fd5b6105ca8482850161373c565b60008060408385031215613865578182fd5b823567ffffffffffffffff8082111561387c578384fd5b6138888683870161373c565b9350602085013591508082111561389d578283fd5b506138aa8582860161373c565b9150509250929050565b6000806000606084860312156138c8578081fd5b833567ffffffffffffffff808211156138df578283fd5b6138eb8783880161373c565b94506020860135915080821115613900578283fd5b61390c8783880161373c565b93506040860135915080821115613921578283fd5b5061392e8682870161373c565b9150509250925092565b6000806000806080858703121561394d578081fd5b843567ffffffffffffffff80821115613964578283fd5b6139708883890161373c565b95506020870135915080821115613985578283fd5b6139918883890161373c565b945060408701359150808211156139a6578283fd5b506139b38782880161373c565b9250506139c260608601613725565b905092959194509250565b600080600080608085870312156139e2578384fd5b843567ffffffffffffffff808211156139f9578586fd5b613a058883890161373c565b9550602087013594506040870135915080821115613a21578384fd5b613a2d8883890161373c565b93506060870135915080821115613a42578283fd5b50613a4f8782880161373c565b91505092959194509250565b600060208284031215613a6c578081fd5b5051919050565b60008060408385031215613a85578182fd5b82359150602083013567ffffffffffffffff811115613aa2578182fd5b6138aa8582860161373c565b60008151808452613ac6816020860160208601613ea3565b601f01601f19169290920160200192915050565b60008251613aec818460208701613ea3565b9190910192915050565b6001600160a01b0391909116815260200190565b6001600160a01b03929092168252602082015260400190565b60208082526000906060830183820185845b6002811015613ba357601f1987850381018452825180518087529087019087870190888102880189018a5b82811015613b8c57858a8303018452613b7a828651613aae565b948b0194938b01939150600101613b60565b509750505093860193505090840190600101613b35565b50919695505050505050565b6000602080830181845280855180835260408601915060408482028701019250838701855b82811015613c0257603f19888603018452613bf0858351613aae565b94509285019290850190600101613bd4565b5092979650505050505050565b901515815260200190565b600060058410613c3857634e487b7160e01b81526021600452602481fd5b838252604060208301526105ca6040830184613aae565b600060408252613c626040830185613aae565b8281036020840152613c748185613aae565b95945050505050565b600060808252613c906080830187613aae565b60208301959095525060408101929092526001600160a01b0316606090910152919050565b60208082526021908201527f70726f64756374206973206e6f7420696e2074686520736f6c642053746174656040820152601760f91b606082015260800190565b60208082526027908201527f50726f64756374206973206e6f7420696e207468652027466f722053616c65276040820152661029ba30ba329760c91b606082015260800190565b60208082526044908201527f54686520616d6f756e742070616964206973206e6f742073756666696369656e60408201527f7420746f20636f76657220746865207072696365206f66207468652070726f646060820152633ab1ba1760e11b608082015260a00190565b60208082526026908201527f70726f64756374206973206e6f7420696e20746865202753686970706564272060408201526529ba30ba329760d11b606082015260800190565b60208082526027908201527f70726f64756374206973206e6f7420696e2074686520275265636569766564276040820152661029ba30ba329760c91b606082015260800190565b6020808252601c908201527f43616c6c657220636f756c646e27742062652076657269666965642e00000000604082015260600190565b90815260200190565b60008219821115613e8757613e87613f29565b500190565b600082821015613e9e57613e9e613f29565b500390565b60005b83811015613ebe578181015183820152602001613ea6565b83811115613ecd576000848401525b50505050565b600281046001821680613ee757607f821691505b60208210811415613f0857634e487b7160e01b600052602260045260246000fd5b50919050565b6000600019821415613f2257613f22613f29565b5060010190565b634e487b7160e01b600052601160045260246000fd5b634e487b7160e01b600052604160045260246000fdfea2646970667358221220e045786df61a19f2bb56ddcabe8333d73385d6266abe50aa1e4c21805f03103864736f6c63430008000033",
  "immutableReferences": {},
  "source": "pragma solidity >=0.6.0 <=0.8.9;\r\npragma experimental ABIEncoderV2;\r\nimport \"./ERC_20.sol\";\r\n\r\ncontract SupplyChain {\r\n    uint256 productID;\r\n\r\n    // IERC20 token;\r\n    // address private owner;\r\n\r\n    address payable owner;\r\n    SupplyDapp supplyobj;\r\n\r\n    enum State {\r\n        ForSale, // 1\r\n        Sold, // 2\r\n        Shipped, // 3\r\n        Received, // 4\r\n        Purchased // 5\r\n    }\r\n\r\n    State constant defaultState = State.ForSale;\r\n\r\n    struct manfacturerDetails {\r\n        string name;\r\n        string phone;\r\n        string[] product;\r\n        address manufacturerID;\r\n        //consumer has a set of products\r\n        string hashedEmail;\r\n        bool existing;\r\n        //existing will tell whether a manufacturer is already existing or not\r\n        // string[] product - array of products owned by the customer\r\n    }\r\n\r\n    // struct which helps create a new product. Product is a combination all of the below things\r\n    struct productDetails {\r\n        uint256 productID;\r\n        string brand;\r\n        uint256 productPrice; // Product Price\r\n        State itemState; // Product State in the supply chain as represented in the enum above\r\n        uint256 state;\r\n        string description; // Product decription\r\n        address payable manufacturerID; // Metamask-Ethereum address of the Manufacturer\r\n        address payable consumerID; // Metamask-Ethereum address of the Consumer\r\n        address[] retailerID; // Metamask-Ethereum address of the all Retailers\r\n        address ownerID; // Metamask-Ethereum address of the current owner as the product moves through 5 stages\r\n        address lastretailer; //address of the Last Retailer of the supply chain\r\n    }\r\n\r\n    struct consumerDetails {\r\n        string name;\r\n        string phone;\r\n        string[] product;\r\n        address consumerID;\r\n        //consumer has a set of products\r\n        string hashedEmail;\r\n        bool existing;\r\n        //existing will tell whether a customer is already existing or not\r\n        // string[] product - array of products owned by the customer\r\n    }\r\n\r\n    struct sellerDetails {\r\n        string name;\r\n        string location;\r\n        string[] product;\r\n        address retailerID;\r\n        string hashedEmail;\r\n        bool existing;\r\n    }\r\n\r\n    mapping(string => manfacturerDetails) manufacturerArr;\r\n    mapping(string => productDetails) productArr;\r\n    mapping(string => consumerDetails) consumerArr;\r\n    mapping(string => sellerDetails) sellerArr;\r\n    mapping(address => string) addresstoHashedEmail;\r\n\r\n    // 5 events\r\n    event ForSale(uint256 productID);\r\n    event Sold(uint256 productID);\r\n    event Shipped(uint256 productID);\r\n    event Received(uint256 productID);\r\n    event Purchased(uint256 productID);\r\n\r\n    event Approval(\r\n        address indexed tokenOwner,\r\n        address indexed spender,\r\n        uint256 tokens\r\n    );\r\n    event Transfer(address indexed from, address indexed to, uint256 tokens);\r\n    mapping(address => uint256) balances;\r\n\r\n    mapping(address => mapping(address => uint256)) allowed;\r\n\r\n    // Define a modifer that verifies the Caller\r\n    modifier verify(address _address) {\r\n        require(msg.sender == _address, \"Caller couldn't be verified.\");\r\n        _;\r\n    }\r\n\r\n    // Define a modifier that checks if the amount paid is sufficient enough\r\n    modifier paidEnough(uint256 _price) {\r\n        require(\r\n            msg.value >= _price,\r\n            \"The amount paid is not sufficient to cover the price of the product.\"\r\n        );\r\n        _;\r\n    }\r\n\r\n    // Define a modifier that checks the price and refunds the remaining balance\r\n    modifier check(string memory _product) {\r\n        _;\r\n        uint256 _price = productArr[_product].productPrice;\r\n        uint256 amountToReturn = msg.value - _price;\r\n        productArr[_product].consumerID.transfer(amountToReturn);\r\n    }\r\n\r\n    // Define a modifier that checks if an product.itemState of a product is ForSale\r\n    modifier forSale(string memory _product) {\r\n        require(\r\n            productArr[_product].itemState == State.ForSale,\r\n            \"Product is not in the 'For Sale' State.\"\r\n        );\r\n        _;\r\n    }\r\n\r\n    // Define a modifier that checks if the product.itemState of a product is Sold\r\n    modifier sold(string memory _product) {\r\n        require(\r\n            productArr[_product].itemState == State.Sold,\r\n            \"product is not in the sold State.\"\r\n        );\r\n        _;\r\n    }\r\n\r\n    // Define a modifier that checks if the product.itemState of a product is Shipped\r\n    modifier shipped(string memory _product) {\r\n        require(\r\n            productArr[_product].itemState == State.Shipped,\r\n            \"product is not in the 'Shipped' State.\"\r\n        );\r\n        _;\r\n    }\r\n\r\n    // Define a modifier that checks if the product.itemState of a product is Received\r\n    modifier received(string memory _product) {\r\n        require(\r\n            productArr[_product].itemState == State.Received,\r\n            \"product is not in the 'Received' State.\"\r\n        );\r\n        _;\r\n    }\r\n\r\n    // Define a modifier that checks if the product.itemState of a product is Purchased\r\n    modifier purchased(string memory _product) {\r\n        require(\r\n            productArr[_product].itemState == State.Purchased,\r\n            \"product is not in the 'Purchased' State.\"\r\n        );\r\n        _;\r\n    }\r\n\r\n    modifier OnlyOwner() {\r\n        require(msg.sender == owner);\r\n        _;\r\n    }\r\n\r\n    constructor(address tokenAddress) public payable {\r\n        supplyobj = SupplyDapp(tokenAddress);\r\n        // token = IERC20(tokenAddress);\r\n        // owner = msg.sender;\r\n\r\n        owner = payable(msg.sender);\r\n        productID = 1;\r\n    }\r\n\r\n    // Define a function 'kill' if required. Only the owner/the address who deployed the contract can kill the contract\r\n    function kill() public {\r\n        if (msg.sender == owner) {\r\n            selfdestruct(owner);\r\n        }\r\n    }\r\n\r\n    // Function to create a new product that allows a manfacturer to mark an item 'ForSale'\r\n    function createProduct(\r\n        string memory _product,\r\n        uint256 _price,\r\n        string memory _brand,\r\n        string memory _description\r\n    ) public payable returns (uint256) {\r\n        productDetails memory newproduct;\r\n        newproduct.brand = _brand;\r\n        newproduct.productPrice = _price;\r\n        newproduct.manufacturerID = payable(msg.sender);\r\n        newproduct.productID = productID;\r\n        newproduct.itemState = State.ForSale;\r\n        newproduct.state = 1;\r\n        newproduct.description = _description;\r\n        productArr[_product] = newproduct;\r\n        productID = productID + 1;\r\n        emit ForSale(productID);\r\n        return 1;\r\n    }\r\n\r\n    // Function for creating a new customer/user\r\n    function createManufacturer(\r\n        string memory _hashedEmail,\r\n        string memory _name,\r\n        string memory _phone\r\n        // address toAddress\r\n    ) public payable returns (bool) {\r\n        if (manufacturerArr[_hashedEmail].existing) {\r\n            return false;\r\n        }\r\n        manfacturerDetails memory newManfacturer;\r\n        newManfacturer.name = _name;\r\n        newManfacturer.phone = _phone;\r\n        newManfacturer.existing = true;\r\n        newManfacturer.hashedEmail = _hashedEmail;\r\n        newManfacturer.manufacturerID = msg.sender;\r\n        manufacturerArr[_hashedEmail] = newManfacturer;\r\n        // supplyobj.transfer(\r\n        //     toAddress,\r\n        //     987*10**8\r\n        // );\r\n        // TestTransfer(receiver,numTokens);\r\n        return true;\r\n    }\r\n\r\n    function GetUserTokenBalance(address _acc) public view returns (uint256) {\r\n        return supplyobj.balanceOf(_acc);\r\n    }\r\n\r\n    function TestTransfer(address receiver, uint256 numTokens)\r\n        public\r\n        returns (bool)\r\n    {\r\n        require(numTokens <= GetUserTokenBalance(msg.sender));\r\n        // emit Transfer(msg.sender, receiver, numTokens);\r\n        supplyobj.transfer(receiver, numTokens);\r\n        return true;\r\n    }\r\n\r\n    function add_mint(address acc) public returns (bool) {\r\n        supplyobj.mint(acc, 1000 * 10**18);\r\n        return true;\r\n    }\r\n\r\n    // Function to get product details except retailer/seller information\r\n\r\n    function getProductDetails1(string memory _product)\r\n        public\r\n        view\r\n        returns (\r\n            string memory,\r\n            uint256,\r\n            uint256,\r\n            address\r\n        )\r\n    {\r\n        return (\r\n            productArr[_product].brand,\r\n            productArr[_product].productID,\r\n            productArr[_product].productPrice,\r\n            productArr[_product].manufacturerID\r\n        );\r\n    }\r\n\r\n    function getProductDetails2(string memory _product)\r\n        public\r\n        view\r\n        returns (State, string memory)\r\n    {\r\n        return (\r\n            productArr[_product].itemState,\r\n            productArr[_product].description\r\n        );\r\n    }\r\n\r\n    // Function to get retailer(s) information associated with the product\r\n\r\n    function getProductRetailerDetails(string memory _product)\r\n        public\r\n        view\r\n        returns (string[][2] memory)\r\n    {\r\n        uint256 sellersassociatedwithproduct = productArr[_product]\r\n            .retailerID\r\n            .length;\r\n        uint256 i;\r\n        string[][2] memory ans;\r\n        for (i = 0; i < sellersassociatedwithproduct; i++) {\r\n            string memory retailerHashedEmail = addresstoHashedEmail[\r\n                productArr[_product].retailerID[i]\r\n            ];\r\n            ans[i][0] = sellerArr[retailerHashedEmail].name;\r\n            ans[i][1] = sellerArr[retailerHashedEmail].location;\r\n        }\r\n        return ans;\r\n    }\r\n\r\n    // Function for creating a new customer/user\r\n    function createCustomer(\r\n        string memory _hashedEmail,\r\n        string memory _name,\r\n        string memory _phone,\r\n        address toAddress\r\n    ) public payable returns (bool) {\r\n        if (consumerArr[_hashedEmail].existing) {\r\n            return false;\r\n        }\r\n        consumerDetails memory newCustomer;\r\n        newCustomer.name = _name;\r\n        newCustomer.phone = _phone;\r\n        newCustomer.existing = true;\r\n        newCustomer.hashedEmail = _hashedEmail;\r\n        newCustomer.consumerID = msg.sender;\r\n        consumerArr[_hashedEmail] = newCustomer;\r\n        // supplyobj.transfer(toAddress, 999 * 10**10);\r\n        return true;\r\n    }\r\n\r\n    // Function to get consumer details\r\n\r\n    function getConsumerDetails(string memory _hashedEmail)\r\n        public\r\n        view\r\n        returns (string memory, string memory)\r\n    {\r\n        return (\r\n            consumerArr[_hashedEmail].name,\r\n            consumerArr[_hashedEmail].phone\r\n        );\r\n    }\r\n\r\n    // Function for creating a seller\r\n\r\n    function createSeller(\r\n        string memory _hashedEmail,\r\n        string memory _sellerName,\r\n        string memory _sellerLocation,\r\n        address toAddress\r\n    ) public payable returns (uint256) {\r\n        sellerDetails memory newSeller;\r\n        newSeller.name = _sellerName;\r\n        newSeller.location = _sellerLocation;\r\n        newSeller.hashedEmail = _hashedEmail;\r\n        newSeller.retailerID = msg.sender;\r\n        newSeller.existing = true;\r\n        sellerArr[_hashedEmail] = newSeller;\r\n        // supplyobj.transfer(msg.sender, 50 * 10**18);\r\n        // supplyobj.transfer(\r\n        //     toAddress,\r\n        //     688 * 10**18\r\n        // );\r\n\r\n        return 1;\r\n    }\r\n\r\n    //Function to get Seller Details\r\n\r\n    function getSellerDetails(string memory _hashedEmail)\r\n        public\r\n        view\r\n        returns (string memory, string memory)\r\n    {\r\n        return (sellerArr[_hashedEmail].name, sellerArr[_hashedEmail].location);\r\n    }\r\n\r\n    // Return all products of a given customer/seller\r\n\r\n    function getProducts(uint256 flag, string memory _hashedEmail)\r\n        public\r\n        view\r\n        returns (string[] memory)\r\n    {\r\n        if (flag == 1) {\r\n            return consumerArr[_hashedEmail].product;\r\n        }\r\n        return sellerArr[_hashedEmail].product;\r\n    }\r\n\r\n    // Cannot directly compare strings in Solidity\r\n    // This function hashes the 2 strings and then compares the 2 hashes\r\n    function compareStrings(string memory a, string memory b)\r\n        internal\r\n        returns (bool)\r\n    {\r\n        return keccak256(bytes(a)) == keccak256(bytes(b));\r\n    }\r\n\r\n    function ConsumerBuys(\r\n        string memory _product, //name\r\n        string memory _consumer, //email\r\n        string memory _seller //email\r\n    )\r\n        public\r\n        payable\r\n        //Call modifier to check if product is for Sale\r\n        forSale(_product)\r\n        // Call modifer to check if consumer has paid enough\r\n        paidEnough(productArr[_product].productPrice)\r\n        // Call modifer to send any excess ether back to consumer\r\n        check(_product)\r\n        returns (bool)\r\n    {\r\n        uint256 i;\r\n        bool flag = false;\r\n        sellerDetails memory seller = sellerArr[_seller];\r\n        uint256 productsassociatedwithseller = seller.product.length;\r\n        consumerDetails memory consumer = consumerArr[_consumer];\r\n        //check if the product has the seller\r\n        // check if the seller has the product listed. if yes, remove the product and add the product to consumer. add consumer to product\r\n\r\n        if (seller.existing && consumer.existing) {\r\n            if (productArr[_product].ownerID == seller.retailerID) {\r\n                flag = true;\r\n            }\r\n            if (flag == true) {\r\n                for (i = 0; i < productsassociatedwithseller; i++) {\r\n                    if (\r\n                        compareStrings(sellerArr[_seller].product[i], _product)\r\n                    ) {\r\n                        remove(i, sellerArr[_seller].product);\r\n                        consumerArr[_consumer].product.push(_product);\r\n                        productArr[_product].consumerID = payable(\r\n                            consumer.consumerID\r\n                        );\r\n                        productArr[_product].ownerID = consumer.consumerID;\r\n                        productArr[_product].lastretailer = seller.retailerID;\r\n                        productArr[_product].itemState = State.Sold;\r\n                        productArr[_product].state = 3;\r\n                        // Transfer money to manfacturer\r\n                        // productArr[_product].manufacturerID.transfer(\r\n                        //     productArr[_product].productPrice\r\n                        // );\r\n                        // supplyobj.transfer(productArr[_product].ownerID, productArr[_product].productPrice);\r\n                        // supplyobj.transfer(msg.sender, 50 * 10**18);\r\n                        // emit the appropriate event\r\n                        emit Sold(productArr[_product].productID);\r\n                        flag = true;\r\n                        break;\r\n                    }\r\n                }\r\n            }\r\n        }\r\n        return flag;\r\n    }\r\n\r\n    // ShipProduct is function\r\n    function ShipProduct(string memory _product)\r\n        public\r\n        // Call modifier to check if product has passed previous stage of supply chain\r\n        sold(_product)\r\n        // Call modifier to verify caller of this function\r\n        verify(productArr[_product].lastretailer)\r\n    {\r\n        // Update the state\r\n        productArr[_product].itemState = State.Shipped;\r\n        // Emit the appropriate event\r\n        emit Shipped(productArr[_product].productID);\r\n    }\r\n\r\n    // Define a function 'receiveItem'\r\n    function receiveItem(string memory _product)\r\n        public\r\n        // Call modifier to check if product has passed previous stage of supply chain\r\n        shipped(_product)\r\n        verify(productArr[_product].ownerID)\r\n    {\r\n        productArr[_product].itemState = State.Received;\r\n        emit Received(productArr[_product].productID);\r\n    }\r\n\r\n    // Define a function 'purchaseItem' that allows the consumer to mark an item 'Purchased'\r\n    function purchaseItem(string memory _product)\r\n        public\r\n        received(_product)\r\n        verify(productArr[_product].ownerID)\r\n    {\r\n        productArr[_product].itemState = State.Purchased;\r\n        emit Purchased(productArr[_product].productID);\r\n    }\r\n\r\n    function RetailertoRetailer(\r\n        string memory _product,\r\n        string memory _fromseller,\r\n        string memory _toseller\r\n    ) public payable returns (bool) {\r\n        uint256 i;\r\n        bool flag = false;\r\n        sellerDetails memory oldSeller = sellerArr[_fromseller];\r\n        sellerDetails memory newSeller = sellerArr[_toseller];\r\n        uint256 productsassociatedwitholdseller = oldSeller.product.length;\r\n\r\n        if (oldSeller.existing && newSeller.existing) {\r\n            if (productArr[_product].ownerID == oldSeller.retailerID) {\r\n                flag = true;\r\n            }\r\n            if (flag == true) {\r\n                for (i = 0; i < productsassociatedwitholdseller; i++) {\r\n                    if (\r\n                        compareStrings(\r\n                            sellerArr[_fromseller].product[i],\r\n                            _product\r\n                        )\r\n                    ) {\r\n                        remove(i, sellerArr[_fromseller].product);\r\n                        sellerArr[_toseller].product.push(_product);\r\n                        productArr[_product].retailerID.push(\r\n                            newSeller.retailerID\r\n                        );\r\n                        productArr[_product].ownerID = newSeller.retailerID;\r\n                        flag = true;\r\n                        break;\r\n                    }\r\n                }\r\n            }\r\n        }\r\n        return flag;\r\n    }\r\n\r\n    function InitialOwner(string memory _product, string memory _retailer)\r\n        public\r\n        payable\r\n        returns (bool)\r\n    {\r\n        if (sellerArr[_retailer].existing) {\r\n            productArr[_product].retailerID.push(\r\n                (sellerArr[_retailer].retailerID)\r\n            );\r\n            productArr[_product].ownerID = sellerArr[_retailer].retailerID;\r\n            productArr[_product].state = 2;\r\n            sellerArr[_retailer].product.push(_product);\r\n            return true;\r\n        }\r\n        return false;\r\n    }\r\n\r\n    // Function to delete an element from an array\r\n    function remove(uint256 index, string[] storage array)\r\n        internal\r\n        returns (bool)\r\n    {\r\n        if (index >= array.length) return false;\r\n\r\n        for (uint256 i = index; i < array.length - 1; i++) {\r\n            array[i] = array[i + 1];\r\n        }\r\n        array.pop();\r\n        return true;\r\n    }\r\n\r\n    function checkFakeProd(string memory _product, string memory _retailer)\r\n        public\r\n        payable\r\n        returns (bool)\r\n    {\r\n        productDetails memory newproduct = productArr[_product];\r\n        if (newproduct.ownerID == sellerArr[_retailer].retailerID) {\r\n            // Check if retailer data matches with retailers data in BC\r\n            return true;\r\n        }\r\n        return false;\r\n    }\r\n\r\n    // Function to report stolen\r\n    function reportproductstolen(\r\n        string memory _consumer,\r\n        string memory _product\r\n    ) public payable returns (bool) {\r\n        uint256 i;\r\n        if (consumerArr[_consumer].existing) {\r\n            for (i = 0; i < consumerArr[_consumer].product.length; i++) {\r\n                if (\r\n                    compareStrings(consumerArr[_consumer].product[i], _product)\r\n                ) {\r\n                    productArr[_product].state = 4;\r\n                }\r\n                return true;\r\n            }\r\n        }\r\n        return false;\r\n    }\r\n\r\n    function returnproduct(string memory _consumer, string memory _product)\r\n        public\r\n        payable\r\n        returns (bool)\r\n    {\r\n        if (consumerArr[_consumer].existing) {\r\n            uint256 productsellers = productArr[_product].retailerID.length;\r\n            string memory retailerHashedEmail = addresstoHashedEmail[\r\n                productArr[_product].retailerID[productsellers - 1]\r\n            ];\r\n            if (sellerArr[retailerHashedEmail].existing) {\r\n                productArr[_product].ownerID = productArr[_product].retailerID[\r\n                    productsellers - 1\r\n                ];\r\n                productArr[_product].consumerID = payable(address(0));\r\n                uint256 i;\r\n                for (i = 0; i < consumerArr[_consumer].product.length; i++) {\r\n                    if (\r\n                        compareStrings(\r\n                            consumerArr[_consumer].product[i],\r\n                            _product\r\n                        )\r\n                    ) {\r\n                        sellerArr[retailerHashedEmail].product.push(_product);\r\n                        remove(i, consumerArr[_consumer].product);\r\n                        return true;\r\n                    }\r\n                }\r\n            }\r\n        }\r\n        return false;\r\n    }\r\n}\r\n",
  "sourcePath": "C:/Users/priya/OneDrive/Desktop/BCPRO_v1/bc_pro/contracts/SupplyChain.sol",
  "compiler": {
    "name": "solc",
    "version": "0.8.0+commit.c7dfd78e.Emscripten.clang"
  },
  "schemaVersion": "3.3.3",
  "updatedAt": "2022-12-09T03:51:01.697Z",
  "networkType": "ethereum",
  "devdoc": {
    "kind": "dev",
    "methods": {},
    "version": 1
  },
  "userdoc": {
    "kind": "user",
    "methods": {},
    "version": 1
  }
}