{
  "contractName": "SupplyChain",
  "abi": [
    {
      "inputs": [],
      "stateMutability": "payable",
      "type": "constructor",
      "payable": true
    },
    {
      "anonymous": false,
      "inputs": [
        {
          "indexed": false,
          "internalType": "uint256",
          "name": "productID",
          "type": "uint256"
        }
      ],
      "name": "ForSale",
      "type": "event"
    },
    {
      "anonymous": false,
      "inputs": [
        {
          "indexed": false,
          "internalType": "uint256",
          "name": "productID",
          "type": "uint256"
        }
      ],
      "name": "Purchased",
      "type": "event"
    },
    {
      "anonymous": false,
      "inputs": [
        {
          "indexed": false,
          "internalType": "uint256",
          "name": "productID",
          "type": "uint256"
        }
      ],
      "name": "Received",
      "type": "event"
    },
    {
      "anonymous": false,
      "inputs": [
        {
          "indexed": false,
          "internalType": "uint256",
          "name": "productID",
          "type": "uint256"
        }
      ],
      "name": "Shipped",
      "type": "event"
    },
    {
      "anonymous": false,
      "inputs": [
        {
          "indexed": false,
          "internalType": "uint256",
          "name": "productID",
          "type": "uint256"
        }
      ],
      "name": "Sold",
      "type": "event"
    },
    {
      "inputs": [],
      "name": "kill",
      "outputs": [],
      "stateMutability": "nonpayable",
      "type": "function"
    },
    {
      "inputs": [
        {
          "internalType": "string",
          "name": "_product",
          "type": "string"
        },
        {
          "internalType": "uint256",
          "name": "_price",
          "type": "uint256"
        },
        {
          "internalType": "string",
          "name": "_brand",
          "type": "string"
        },
        {
          "internalType": "string",
          "name": "_description",
          "type": "string"
        }
      ],
      "name": "createProduct",
      "outputs": [
        {
          "internalType": "uint256",
          "name": "",
          "type": "uint256"
        }
      ],
      "stateMutability": "payable",
      "type": "function",
      "payable": true
    },
    {
      "inputs": [
        {
          "internalType": "string",
          "name": "_hashedEmail",
          "type": "string"
        },
        {
          "internalType": "string",
          "name": "_name",
          "type": "string"
        },
        {
          "internalType": "string",
          "name": "_phone",
          "type": "string"
        }
      ],
      "name": "createManufacturer",
      "outputs": [
        {
          "internalType": "bool",
          "name": "",
          "type": "bool"
        }
      ],
      "stateMutability": "payable",
      "type": "function",
      "payable": true
    },
    {
      "inputs": [
        {
          "internalType": "string",
          "name": "_product",
          "type": "string"
        }
      ],
      "name": "getProductDetails1",
      "outputs": [
        {
          "internalType": "string",
          "name": "",
          "type": "string"
        },
        {
          "internalType": "uint256",
          "name": "",
          "type": "uint256"
        },
        {
          "internalType": "uint256",
          "name": "",
          "type": "uint256"
        },
        {
          "internalType": "address",
          "name": "",
          "type": "address"
        }
      ],
      "stateMutability": "view",
      "type": "function",
      "constant": true
    },
    {
      "inputs": [
        {
          "internalType": "string",
          "name": "_product",
          "type": "string"
        }
      ],
      "name": "getProductDetails2",
      "outputs": [
        {
          "internalType": "enum SupplyChain.State",
          "name": "",
          "type": "uint8"
        },
        {
          "internalType": "string",
          "name": "",
          "type": "string"
        }
      ],
      "stateMutability": "view",
      "type": "function",
      "constant": true
    },
    {
      "inputs": [
        {
          "internalType": "string",
          "name": "_product",
          "type": "string"
        }
      ],
      "name": "getProductRetailerDetails",
      "outputs": [
        {
          "internalType": "string[][2]",
          "name": "",
          "type": "string[][2]"
        }
      ],
      "stateMutability": "view",
      "type": "function",
      "constant": true
    },
    {
      "inputs": [
        {
          "internalType": "string",
          "name": "_hashedEmail",
          "type": "string"
        },
        {
          "internalType": "string",
          "name": "_name",
          "type": "string"
        },
        {
          "internalType": "string",
          "name": "_phone",
          "type": "string"
        }
      ],
      "name": "createCustomer",
      "outputs": [
        {
          "internalType": "bool",
          "name": "",
          "type": "bool"
        }
      ],
      "stateMutability": "payable",
      "type": "function",
      "payable": true
    },
    {
      "inputs": [
        {
          "internalType": "string",
          "name": "_hashedEmail",
          "type": "string"
        }
      ],
      "name": "getConsumerDetails",
      "outputs": [
        {
          "internalType": "string",
          "name": "",
          "type": "string"
        },
        {
          "internalType": "string",
          "name": "",
          "type": "string"
        }
      ],
      "stateMutability": "view",
      "type": "function",
      "constant": true
    },
    {
      "inputs": [
        {
          "internalType": "string",
          "name": "_hashedEmail",
          "type": "string"
        },
        {
          "internalType": "string",
          "name": "_sellerName",
          "type": "string"
        },
        {
          "internalType": "string",
          "name": "_sellerLocation",
          "type": "string"
        }
      ],
      "name": "createSeller",
      "outputs": [
        {
          "internalType": "uint256",
          "name": "",
          "type": "uint256"
        }
      ],
      "stateMutability": "payable",
      "type": "function",
      "payable": true
    },
    {
      "inputs": [
        {
          "internalType": "string",
          "name": "_hashedEmail",
          "type": "string"
        }
      ],
      "name": "getSellerDetails",
      "outputs": [
        {
          "internalType": "string",
          "name": "",
          "type": "string"
        },
        {
          "internalType": "string",
          "name": "",
          "type": "string"
        }
      ],
      "stateMutability": "view",
      "type": "function",
      "constant": true
    },
    {
      "inputs": [
        {
          "internalType": "uint256",
          "name": "flag",
          "type": "uint256"
        },
        {
          "internalType": "string",
          "name": "_hashedEmail",
          "type": "string"
        }
      ],
      "name": "getProducts",
      "outputs": [
        {
          "internalType": "string[]",
          "name": "",
          "type": "string[]"
        }
      ],
      "stateMutability": "view",
      "type": "function",
      "constant": true
    },
    {
      "inputs": [
        {
          "internalType": "string",
          "name": "_product",
          "type": "string"
        },
        {
          "internalType": "string",
          "name": "_consumer",
          "type": "string"
        },
        {
          "internalType": "string",
          "name": "_seller",
          "type": "string"
        }
      ],
      "name": "ConsumerBuys",
      "outputs": [
        {
          "internalType": "bool",
          "name": "",
          "type": "bool"
        }
      ],
      "stateMutability": "payable",
      "type": "function",
      "payable": true
    },
    {
      "inputs": [
        {
          "internalType": "string",
          "name": "_product",
          "type": "string"
        }
      ],
      "name": "ShipProduct",
      "outputs": [],
      "stateMutability": "nonpayable",
      "type": "function"
    },
    {
      "inputs": [
        {
          "internalType": "string",
          "name": "_product",
          "type": "string"
        }
      ],
      "name": "receiveItem",
      "outputs": [],
      "stateMutability": "nonpayable",
      "type": "function"
    },
    {
      "inputs": [
        {
          "internalType": "string",
          "name": "_product",
          "type": "string"
        }
      ],
      "name": "purchaseItem",
      "outputs": [],
      "stateMutability": "nonpayable",
      "type": "function"
    },
    {
      "inputs": [
        {
          "internalType": "string",
          "name": "_product",
          "type": "string"
        },
        {
          "internalType": "string",
          "name": "_fromseller",
          "type": "string"
        },
        {
          "internalType": "string",
          "name": "_toseller",
          "type": "string"
        }
      ],
      "name": "RetailertoRetailer",
      "outputs": [
        {
          "internalType": "bool",
          "name": "",
          "type": "bool"
        }
      ],
      "stateMutability": "payable",
      "type": "function",
      "payable": true
    },
    {
      "inputs": [
        {
          "internalType": "string",
          "name": "_product",
          "type": "string"
        },
        {
          "internalType": "string",
          "name": "_retailer",
          "type": "string"
        }
      ],
      "name": "InitialOwner",
      "outputs": [
        {
          "internalType": "bool",
          "name": "",
          "type": "bool"
        }
      ],
      "stateMutability": "payable",
      "type": "function",
      "payable": true
    },
    {
      "inputs": [
        {
          "internalType": "string",
          "name": "_product",
          "type": "string"
        },
        {
          "internalType": "string",
          "name": "_retailer",
          "type": "string"
        }
      ],
      "name": "checkFakeProd",
      "outputs": [
        {
          "internalType": "bool",
          "name": "",
          "type": "bool"
        }
      ],
      "stateMutability": "payable",
      "type": "function",
      "payable": true
    },
    {
      "inputs": [
        {
          "internalType": "string",
          "name": "_consumer",
          "type": "string"
        },
        {
          "internalType": "string",
          "name": "_product",
          "type": "string"
        }
      ],
      "name": "reportproductstolen",
      "outputs": [
        {
          "internalType": "bool",
          "name": "",
          "type": "bool"
        }
      ],
      "stateMutability": "payable",
      "type": "function",
      "payable": true
    },
    {
      "inputs": [
        {
          "internalType": "string",
          "name": "_consumer",
          "type": "string"
        },
        {
          "internalType": "string",
          "name": "_product",
          "type": "string"
        }
      ],
      "name": "returnproduct",
      "outputs": [
        {
          "internalType": "bool",
          "name": "",
          "type": "bool"
        }
      ],
      "stateMutability": "payable",
      "type": "function",
      "payable": true
    }
  ],
  "bytecode": "0x6080604052336000806101000a81548173ffffffffffffffffffffffffffffffffffffffff021916908373ffffffffffffffffffffffffffffffffffffffff1602179055506001808190555061562f8061005a6000396000f3fe60806040526004361061011f5760003560e01c806355b059e8116100a0578063a6f43d5011610064578063a6f43d50146103ff578063c36690631461042f578063d1ef59a31461046c578063d55f69f61461049c578063e962493a146104da5761011f565b806355b059e8146102fb5780635da3ed861461032b57806372f45bcd14610368578063886ed83c14610391578063921cc6b5146103c15761011f565b806341c0e1b5116100e757806341c0e1b5146102225780634975671b146102395780634d1cd3e814610279578063527ff460146102a957806352990375146102d25761011f565b806307877cff146101245780630ec8aa75146101545780631a792c881461018457806325df3923146101b457806327029b64146101f2575b600080fd5b61013e600480360381019061013991906145b7565b61050a565b60405161014b9190614681565b60405180910390f35b61016e6004803603810190610169919061469c565b6107e2565b60405161017b919061472f565b60405180910390f35b61019e6004803603810190610199919061469c565b610c03565b6040516101ab919061472f565b60405180910390f35b3480156101c057600080fd5b506101db60048036038101906101d6919061474a565b610e2c565b6040516101e9929190614812565b60405180910390f35b61020c60048036038101906102079190614849565b610f92565b604051610219919061472f565b60405180910390f35b34801561022e57600080fd5b50610237611c88565b005b34801561024557600080fd5b50610260600480360381019061025b919061474a565b611d16565b6040516102709493929190614931565b60405180910390f35b610293600480360381019061028e919061469c565b611e5f565b6040516102a0919061472f565b60405180910390f35b3480156102b557600080fd5b506102d060048036038101906102cb919061474a565b612302565b005b3480156102de57600080fd5b506102f960048036038101906102f4919061474a565b6124ef565b005b61031560048036038101906103109190614849565b6126db565b604051610322919061472f565b60405180910390f35b34801561033757600080fd5b50610352600480360381019061034d919061497d565b61287b565b60405161035f9190614ae5565b60405180910390f35b34801561037457600080fd5b5061038f600480360381019061038a919061474a565b612a77565b005b6103ab60048036038101906103a69190614849565b612c64565b6040516103b8919061472f565b60405180910390f35b3480156103cd57600080fd5b506103e860048036038101906103e3919061474a565b6135e3565b6040516103f6929190614b7e565b60405180910390f35b61041960048036038101906104149190614849565b6136cc565b604051610426919061472f565b60405180910390f35b34801561043b57600080fd5b506104566004803603810190610451919061474a565b61386c565b6040516104639190614cea565b60405180910390f35b61048660048036038101906104819190614849565b613bbc565b6040516104939190614681565b60405180910390f35b3480156104a857600080fd5b506104c360048036038101906104be919061474a565b613d1e565b6040516104d1929190614812565b60405180910390f35b6104f460048036038101906104ef919061469c565b613e84565b604051610501919061472f565b60405180910390f35b60006105146140ee565b83816020018190525084816040018181525050338160c0019073ffffffffffffffffffffffffffffffffffffffff16908173ffffffffffffffffffffffffffffffffffffffff168152505060015481600001818152505060008160600190600481111561058457610583614b07565b5b9081600481111561059857610597614b07565b5b815250506001816080018181525050828160a00181905250806003876040516105c19190614d48565b90815260200160405180910390206000820151816000015560208201518160010190816105ee9190614f6b565b506040820151816002015560608201518160030160006101000a81548160ff0219169083600481111561062457610623614b07565b5b02179055506080820151816004015560a08201518160050190816106489190614f6b565b5060c08201518160060160006101000a81548173ffffffffffffffffffffffffffffffffffffffff021916908373ffffffffffffffffffffffffffffffffffffffff16021790555060e08201518160070160006101000a81548173ffffffffffffffffffffffffffffffffffffffff021916908373ffffffffffffffffffffffffffffffffffffffff1602179055506101008201518160080190805190602001906106f49291906141b2565b506101208201518160090160006101000a81548173ffffffffffffffffffffffffffffffffffffffff021916908373ffffffffffffffffffffffffffffffffffffffff16021790555061014082015181600a0160006101000a81548173ffffffffffffffffffffffffffffffffffffffff021916908373ffffffffffffffffffffffffffffffffffffffff16021790555090505060018054610796919061506c565b6001819055507fa96ae0fc3224ebd79eebfe54bd130cc9cb94416cddd1f2386115e00b725324686001546040516107cd9190614681565b60405180910390a16001915050949350505050565b6000806003846040516107f59190614d48565b9081526020016040518091039020604051806101600160405290816000820154815260200160018201805461082990614d8e565b80601f016020809104026020016040519081016040528092919081815260200182805461085590614d8e565b80156108a25780601f10610877576101008083540402835291602001916108a2565b820191906000526020600020905b81548152906001019060200180831161088557829003601f168201915b50505050508152602001600282015481526020016003820160009054906101000a900460ff1660048111156108da576108d9614b07565b5b60048111156108ec576108eb614b07565b5b81526020016004820154815260200160058201805461090a90614d8e565b80601f016020809104026020016040519081016040528092919081815260200182805461093690614d8e565b80156109835780601f1061095857610100808354040283529160200191610983565b820191906000526020600020905b81548152906001019060200180831161096657829003601f168201915b505050505081526020016006820160009054906101000a900473ffffffffffffffffffffffffffffffffffffffff1673ffffffffffffffffffffffffffffffffffffffff1673ffffffffffffffffffffffffffffffffffffffff1681526020016007820160009054906101000a900473ffffffffffffffffffffffffffffffffffffffff1673ffffffffffffffffffffffffffffffffffffffff1673ffffffffffffffffffffffffffffffffffffffff16815260200160088201805480602002602001604051908101604052809291908181526020018280548015610abd57602002820191906000526020600020905b8160009054906101000a900473ffffffffffffffffffffffffffffffffffffffff1673ffffffffffffffffffffffffffffffffffffffff1681526020019060010190808311610a73575b505050505081526020016009820160009054906101000a900473ffffffffffffffffffffffffffffffffffffffff1673ffffffffffffffffffffffffffffffffffffffff1673ffffffffffffffffffffffffffffffffffffffff168152602001600a820160009054906101000a900473ffffffffffffffffffffffffffffffffffffffff1673ffffffffffffffffffffffffffffffffffffffff1673ffffffffffffffffffffffffffffffffffffffff16815250509050600583604051610b849190614d48565b908152602001604051809103902060030160009054906101000a900473ffffffffffffffffffffffffffffffffffffffff1673ffffffffffffffffffffffffffffffffffffffff1681610120015173ffffffffffffffffffffffffffffffffffffffff1603610bf7576001915050610bfd565b60009150505b92915050565b6000600582604051610c159190614d48565b908152602001604051809103902060050160009054906101000a900460ff1615610e2157600383604051610c499190614d48565b9081526020016040518091039020600801600583604051610c6a9190614d48565b908152602001604051809103902060030160009054906101000a900473ffffffffffffffffffffffffffffffffffffffff169080600181540180825580915050600190039060005260206000200160009091909190916101000a81548173ffffffffffffffffffffffffffffffffffffffff021916908373ffffffffffffffffffffffffffffffffffffffff160217905550600582604051610d0c9190614d48565b908152602001604051809103902060030160009054906101000a900473ffffffffffffffffffffffffffffffffffffffff16600384604051610d4e9190614d48565b908152602001604051809103902060090160006101000a81548173ffffffffffffffffffffffffffffffffffffffff021916908373ffffffffffffffffffffffffffffffffffffffff1602179055506002600384604051610daf9190614d48565b908152602001604051809103902060040181905550600582604051610dd49190614d48565b908152602001604051809103902060020183908060018154018082558091505060019003906000526020600020016000909190919091509081610e179190614f6b565b5060019050610e26565b600090505b92915050565b606080600483604051610e3f9190614d48565b9081526020016040518091039020600001600484604051610e609190614d48565b9081526020016040518091039020600101818054610e7d90614d8e565b80601f0160208091040260200160405190810160405280929190818152602001828054610ea990614d8e565b8015610ef65780601f10610ecb57610100808354040283529160200191610ef6565b820191906000526020600020905b815481529060010190602001808311610ed957829003601f168201915b50505050509150808054610f0990614d8e565b80601f0160208091040260200160405190810160405280929190818152602001828054610f3590614d8e565b8015610f825780601f10610f5757610100808354040283529160200191610f82565b820191906000526020600020905b815481529060010190602001808311610f6557829003601f168201915b5050505050905091509150915091565b60008360006004811115610fa957610fa8614b07565b5b600382604051610fb99190614d48565b908152602001604051809103902060030160009054906101000a900460ff166004811115610fea57610fe9614b07565b5b1461102a576040517f08c379a000000000000000000000000000000000000000000000000000000000815260040161102190615112565b60405180910390fd5b60038560405161103a9190614d48565b9081526020016040518091039020600201548034101561108f576040517f08c379a0000000000000000000000000000000000000000000000000000000008152600401611086906151ca565b60405180910390fd5b856000806000905060006005886040516110a99190614d48565b90815260200160405180910390206040518060c00160405290816000820180546110d290614d8e565b80601f01602080910402602001604051908101604052809291908181526020018280546110fe90614d8e565b801561114b5780601f106111205761010080835404028352916020019161114b565b820191906000526020600020905b81548152906001019060200180831161112e57829003601f168201915b5050505050815260200160018201805461116490614d8e565b80601f016020809104026020016040519081016040528092919081815260200182805461119090614d8e565b80156111dd5780601f106111b2576101008083540402835291602001916111dd565b820191906000526020600020905b8154815290600101906020018083116111c057829003601f168201915b5050505050815260200160028201805480602002602001604051908101604052809291908181526020016000905b828210156112b757838290600052602060002001805461122a90614d8e565b80601f016020809104026020016040519081016040528092919081815260200182805461125690614d8e565b80156112a35780601f10611278576101008083540402835291602001916112a3565b820191906000526020600020905b81548152906001019060200180831161128657829003601f168201915b50505050508152602001906001019061120b565b5050505081526020016003820160009054906101000a900473ffffffffffffffffffffffffffffffffffffffff1673ffffffffffffffffffffffffffffffffffffffff1673ffffffffffffffffffffffffffffffffffffffff16815260200160048201805461132590614d8e565b80601f016020809104026020016040519081016040528092919081815260200182805461135190614d8e565b801561139e5780601f106113735761010080835404028352916020019161139e565b820191906000526020600020905b81548152906001019060200180831161138157829003601f168201915b505050505081526020016005820160009054906101000a900460ff161515151581525050905060008160400151519050600060048b6040516113e09190614d48565b90815260200160405180910390206040518060c001604052908160008201805461140990614d8e565b80601f016020809104026020016040519081016040528092919081815260200182805461143590614d8e565b80156114825780601f1061145757610100808354040283529160200191611482565b820191906000526020600020905b81548152906001019060200180831161146557829003601f168201915b5050505050815260200160018201805461149b90614d8e565b80601f01602080910402602001604051908101604052809291908181526020018280546114c790614d8e565b80156115145780601f106114e957610100808354040283529160200191611514565b820191906000526020600020905b8154815290600101906020018083116114f757829003601f168201915b5050505050815260200160028201805480602002602001604051908101604052809291908181526020016000905b828210156115ee57838290600052602060002001805461156190614d8e565b80601f016020809104026020016040519081016040528092919081815260200182805461158d90614d8e565b80156115da5780601f106115af576101008083540402835291602001916115da565b820191906000526020600020905b8154815290600101906020018083116115bd57829003601f168201915b505050505081526020019060010190611542565b5050505081526020016003820160009054906101000a900473ffffffffffffffffffffffffffffffffffffffff1673ffffffffffffffffffffffffffffffffffffffff1673ffffffffffffffffffffffffffffffffffffffff16815260200160048201805461165c90614d8e565b80601f016020809104026020016040519081016040528092919081815260200182805461168890614d8e565b80156116d55780601f106116aa576101008083540402835291602001916116d5565b820191906000526020600020905b8154815290600101906020018083116116b857829003601f168201915b505050505081526020016005820160009054906101000a900460ff16151515158152505090508260a00151801561170d57508060a001515b15611bb657826060015173ffffffffffffffffffffffffffffffffffffffff1660038d60405161173d9190614d48565b908152602001604051809103902060090160009054906101000a900473ffffffffffffffffffffffffffffffffffffffff1673ffffffffffffffffffffffffffffffffffffffff160361178f57600193505b6001151584151503611bb557600094505b81851015611bb45761187760058b6040516117bb9190614d48565b908152602001604051809103902060020186815481106117de576117dd6151ea565b5b9060005260206000200180546117f390614d8e565b80601f016020809104026020016040519081016040528092919081815260200182805461181f90614d8e565b801561186c5780601f106118415761010080835404028352916020019161186c565b820191906000526020600020905b81548152906001019060200180831161184f57829003601f168201915b50505050508d613ffe565b15611ba1576118a68560058c6040516118909190614d48565b9081526020016040518091039020600201614019565b5060048b6040516118b79190614d48565b90815260200160405180910390206002018c9080600181540180825580915050600190039060005260206000200160009091909190915090816118fa9190614f6b565b50806060015160038d6040516119109190614d48565b908152602001604051809103902060070160006101000a81548173ffffffffffffffffffffffffffffffffffffffff021916908373ffffffffffffffffffffffffffffffffffffffff160217905550806060015160038d6040516119749190614d48565b908152602001604051809103902060090160006101000a81548173ffffffffffffffffffffffffffffffffffffffff021916908373ffffffffffffffffffffffffffffffffffffffff160217905550826060015160038d6040516119d89190614d48565b9081526020016040518091039020600a0160006101000a81548173ffffffffffffffffffffffffffffffffffffffff021916908373ffffffffffffffffffffffffffffffffffffffff160217905550600160038d604051611a399190614d48565b908152602001604051809103902060030160006101000a81548160ff02191690836004811115611a6c57611a6b614b07565b5b02179055506003808d604051611a829190614d48565b90815260200160405180910390206004018190555060038c604051611aa79190614d48565b908152602001604051809103902060060160009054906101000a900473ffffffffffffffffffffffffffffffffffffffff1673ffffffffffffffffffffffffffffffffffffffff166108fc60038e604051611b029190614d48565b9081526020016040518091039020600201549081150290604051600060405180830381858888f19350505050158015611b3f573d6000803e3d6000fd5b507f92f64ca637d023f354075a4be751b169c1a8a9ccb6d33cdd0cb352054399572760038d604051611b719190614d48565b908152602001604051809103902060000154604051611b909190614681565b60405180910390a160019350611bb4565b8480611bac90615219565b9550506117a0565b5b5b83985050505050506000600382604051611bd09190614d48565b908152602001604051809103902060020154905060008134611bf29190615261565b9050600383604051611c049190614d48565b908152602001604051809103902060070160009054906101000a900473ffffffffffffffffffffffffffffffffffffffff1673ffffffffffffffffffffffffffffffffffffffff166108fc829081150290604051600060405180830381858888f19350505050158015611c7b573d6000803e3d6000fd5b5050505050509392505050565b60008054906101000a900473ffffffffffffffffffffffffffffffffffffffff1673ffffffffffffffffffffffffffffffffffffffff163373ffffffffffffffffffffffffffffffffffffffff1603611d145760008054906101000a900473ffffffffffffffffffffffffffffffffffffffff1673ffffffffffffffffffffffffffffffffffffffff16ff5b565b60606000806000600385604051611d2d9190614d48565b9081526020016040518091039020600101600386604051611d4e9190614d48565b908152602001604051809103902060000154600387604051611d709190614d48565b908152602001604051809103902060020154600388604051611d929190614d48565b908152602001604051809103902060060160009054906101000a900473ffffffffffffffffffffffffffffffffffffffff16838054611dd090614d8e565b80601f0160208091040260200160405190810160405280929190818152602001828054611dfc90614d8e565b8015611e495780601f10611e1e57610100808354040283529160200191611e49565b820191906000526020600020905b815481529060010190602001808311611e2c57829003601f168201915b5050505050935093509350935093509193509193565b6000600483604051611e719190614d48565b908152602001604051809103902060050160009054906101000a900460ff16156122f7576000600383604051611ea79190614d48565b9081526020016040518091039020600801805490509050600060066000600386604051611ed49190614d48565b9081526020016040518091039020600801600185611ef29190615261565b81548110611f0357611f026151ea565b5b9060005260206000200160009054906101000a900473ffffffffffffffffffffffffffffffffffffffff1673ffffffffffffffffffffffffffffffffffffffff1673ffffffffffffffffffffffffffffffffffffffff1681526020019081526020016000208054611f7390614d8e565b80601f0160208091040260200160405190810160405280929190818152602001828054611f9f90614d8e565b8015611fec5780601f10611fc157610100808354040283529160200191611fec565b820191906000526020600020905b815481529060010190602001808311611fcf57829003601f168201915b505050505090506005816040516120039190614d48565b908152602001604051809103902060050160009054906101000a900460ff16156122f4576003846040516120379190614d48565b90815260200160405180910390206008016001836120559190615261565b81548110612066576120656151ea565b5b9060005260206000200160009054906101000a900473ffffffffffffffffffffffffffffffffffffffff166003856040516120a19190614d48565b908152602001604051809103902060090160006101000a81548173ffffffffffffffffffffffffffffffffffffffff021916908373ffffffffffffffffffffffffffffffffffffffff16021790555060006003856040516121029190614d48565b908152602001604051809103902060070160006101000a81548173ffffffffffffffffffffffffffffffffffffffff021916908373ffffffffffffffffffffffffffffffffffffffff16021790555060005b6004866040516121649190614d48565b9081526020016040518091039020600201805490508110156122f25761224f6004876040516121939190614d48565b908152602001604051809103902060020182815481106121b6576121b56151ea565b5b9060005260206000200180546121cb90614d8e565b80601f01602080910402602001604051908101604052809291908181526020018280546121f790614d8e565b80156122445780601f1061221957610100808354040283529160200191612244565b820191906000526020600020905b81548152906001019060200180831161222757829003601f168201915b505050505086613ffe565b156122df576005826040516122649190614d48565b9081526020016040518091039020600201859080600181540180825580915050600190039060005260206000200160009091909190915090816122a79190614f6b565b506122d2816004886040516122bc9190614d48565b9081526020016040518091039020600201614019565b50600193505050506122fc565b80806122ea90615219565b915050612154565b505b50505b600090505b92915050565b806001600481111561231757612316614b07565b5b6003826040516123279190614d48565b908152602001604051809103902060030160009054906101000a900460ff16600481111561235857612357614b07565b5b14612398576040517f08c379a000000000000000000000000000000000000000000000000000000000815260040161238f90615307565b60405180910390fd5b6003826040516123a89190614d48565b9081526020016040518091039020600a0160009054906101000a900473ffffffffffffffffffffffffffffffffffffffff168073ffffffffffffffffffffffffffffffffffffffff163373ffffffffffffffffffffffffffffffffffffffff1614612448576040517f08c379a000000000000000000000000000000000000000000000000000000000815260040161243f90615373565b60405180910390fd5b600260038460405161245a9190614d48565b908152602001604051809103902060030160006101000a81548160ff0219169083600481111561248d5761248c614b07565b5b02179055507ff00b9a5725b80c54016f42114f6ed7792d22eecb116011c4afac29c57bef6c956003846040516124c39190614d48565b9081526020016040518091039020600001546040516124e29190614681565b60405180910390a1505050565b806002600481111561250457612503614b07565b5b6003826040516125149190614d48565b908152602001604051809103902060030160009054906101000a900460ff16600481111561254557612544614b07565b5b14612585576040517f08c379a000000000000000000000000000000000000000000000000000000000815260040161257c90615405565b60405180910390fd5b6003826040516125959190614d48565b908152602001604051809103902060090160009054906101000a900473ffffffffffffffffffffffffffffffffffffffff168073ffffffffffffffffffffffffffffffffffffffff163373ffffffffffffffffffffffffffffffffffffffff1614612635576040517f08c379a000000000000000000000000000000000000000000000000000000000815260040161262c90615373565b60405180910390fd5b600380846040516126469190614d48565b908152602001604051809103902060030160006101000a81548160ff0219169083600481111561267957612678614b07565b5b02179055507fa8142743f8f70a4c26f3691cf4ed59718381fb2f18070ec52be1f1022d8555576003846040516126af9190614d48565b9081526020016040518091039020600001546040516126ce9190614681565b60405180910390a1505050565b60006004846040516126ed9190614d48565b908152602001604051809103902060050160009054906101000a900460ff161561271a5760009050612874565b61272261423c565b83816000018190525082816020018190525060018160a001901515908115158152505084816080018190525033816060019073ffffffffffffffffffffffffffffffffffffffff16908173ffffffffffffffffffffffffffffffffffffffff1681525050806004866040516127979190614d48565b908152602001604051809103902060008201518160000190816127ba9190614f6b565b5060208201518160010190816127d09190614f6b565b5060408201518160020190805190602001906127ed92919061428a565b5060608201518160030160006101000a81548173ffffffffffffffffffffffffffffffffffffffff021916908373ffffffffffffffffffffffffffffffffffffffff160217905550608082015181600401908161284a9190614f6b565b5060a08201518160050160006101000a81548160ff02191690831515021790555090505060019150505b9392505050565b60606001830361297d576004826040516128959190614d48565b9081526020016040518091039020600201805480602002602001604051908101604052809291908181526020016000905b828210156129725783829060005260206000200180546128e590614d8e565b80601f016020809104026020016040519081016040528092919081815260200182805461291190614d8e565b801561295e5780601f106129335761010080835404028352916020019161295e565b820191906000526020600020905b81548152906001019060200180831161294157829003601f168201915b5050505050815260200190600101906128c6565b505050509050612a71565b60058260405161298d9190614d48565b9081526020016040518091039020600201805480602002602001604051908101604052809291908181526020016000905b82821015612a6a5783829060005260206000200180546129dd90614d8e565b80601f0160208091040260200160405190810160405280929190818152602001828054612a0990614d8e565b8015612a565780601f10612a2b57610100808354040283529160200191612a56565b820191906000526020600020905b815481529060010190602001808311612a3957829003601f168201915b5050505050815260200190600101906129be565b5050505090505b92915050565b8060036004811115612a8c57612a8b614b07565b5b600382604051612a9c9190614d48565b908152602001604051809103902060030160009054906101000a900460ff166004811115612acd57612acc614b07565b5b14612b0d576040517f08c379a0000000000000000000000000000000000000000000000000000000008152600401612b0490615497565b60405180910390fd5b600382604051612b1d9190614d48565b908152602001604051809103902060090160009054906101000a900473ffffffffffffffffffffffffffffffffffffffff168073ffffffffffffffffffffffffffffffffffffffff163373ffffffffffffffffffffffffffffffffffffffff1614612bbd576040517f08c379a0000000000000000000000000000000000000000000000000000000008152600401612bb490615373565b60405180910390fd5b6004600384604051612bcf9190614d48565b908152602001604051809103902060030160006101000a81548160ff02191690836004811115612c0257612c01614b07565b5b02179055507f653d56639fee6b566a5c804764e9689de38645f0b733df89a36a1b7b42173dd8600384604051612c389190614d48565b908152602001604051809103902060000154604051612c579190614681565b60405180910390a1505050565b600080600080600586604051612c7a9190614d48565b90815260200160405180910390206040518060c0016040529081600082018054612ca390614d8e565b80601f0160208091040260200160405190810160405280929190818152602001828054612ccf90614d8e565b8015612d1c5780601f10612cf157610100808354040283529160200191612d1c565b820191906000526020600020905b815481529060010190602001808311612cff57829003601f168201915b50505050508152602001600182018054612d3590614d8e565b80601f0160208091040260200160405190810160405280929190818152602001828054612d6190614d8e565b8015612dae5780601f10612d8357610100808354040283529160200191612dae565b820191906000526020600020905b815481529060010190602001808311612d9157829003601f168201915b5050505050815260200160028201805480602002602001604051908101604052809291908181526020016000905b82821015612e88578382906000526020600020018054612dfb90614d8e565b80601f0160208091040260200160405190810160405280929190818152602001828054612e2790614d8e565b8015612e745780601f10612e4957610100808354040283529160200191612e74565b820191906000526020600020905b815481529060010190602001808311612e5757829003601f168201915b505050505081526020019060010190612ddc565b5050505081526020016003820160009054906101000a900473ffffffffffffffffffffffffffffffffffffffff1673ffffffffffffffffffffffffffffffffffffffff1673ffffffffffffffffffffffffffffffffffffffff168152602001600482018054612ef690614d8e565b80601f0160208091040260200160405190810160405280929190818152602001828054612f2290614d8e565b8015612f6f5780601f10612f4457610100808354040283529160200191612f6f565b820191906000526020600020905b815481529060010190602001808311612f5257829003601f168201915b505050505081526020016005820160009054906101000a900460ff16151515158152505090506000600586604051612fa79190614d48565b90815260200160405180910390206040518060c0016040529081600082018054612fd090614d8e565b80601f0160208091040260200160405190810160405280929190818152602001828054612ffc90614d8e565b80156130495780601f1061301e57610100808354040283529160200191613049565b820191906000526020600020905b81548152906001019060200180831161302c57829003601f168201915b5050505050815260200160018201805461306290614d8e565b80601f016020809104026020016040519081016040528092919081815260200182805461308e90614d8e565b80156130db5780601f106130b0576101008083540402835291602001916130db565b820191906000526020600020905b8154815290600101906020018083116130be57829003601f168201915b5050505050815260200160028201805480602002602001604051908101604052809291908181526020016000905b828210156131b557838290600052602060002001805461312890614d8e565b80601f016020809104026020016040519081016040528092919081815260200182805461315490614d8e565b80156131a15780601f10613176576101008083540402835291602001916131a1565b820191906000526020600020905b81548152906001019060200180831161318457829003601f168201915b505050505081526020019060010190613109565b5050505081526020016003820160009054906101000a900473ffffffffffffffffffffffffffffffffffffffff1673ffffffffffffffffffffffffffffffffffffffff1673ffffffffffffffffffffffffffffffffffffffff16815260200160048201805461322390614d8e565b80601f016020809104026020016040519081016040528092919081815260200182805461324f90614d8e565b801561329c5780601f106132715761010080835404028352916020019161329c565b820191906000526020600020905b81548152906001019060200180831161327f57829003601f168201915b505050505081526020016005820160009054906101000a900460ff1615151515815250509050600082604001515190508260a0015180156132de57508160a001515b156135d457826060015173ffffffffffffffffffffffffffffffffffffffff1660038a60405161330e9190614d48565b908152602001604051809103902060090160009054906101000a900473ffffffffffffffffffffffffffffffffffffffff1673ffffffffffffffffffffffffffffffffffffffff160361336057600193505b60011515841515036135d357600094505b808510156135d25761344860058960405161338c9190614d48565b908152602001604051809103902060020186815481106133af576133ae6151ea565b5b9060005260206000200180546133c490614d8e565b80601f01602080910402602001604051908101604052809291908181526020018280546133f090614d8e565b801561343d5780601f106134125761010080835404028352916020019161343d565b820191906000526020600020905b81548152906001019060200180831161342057829003601f168201915b50505050508a613ffe565b156135bf576134778560058a6040516134619190614d48565b9081526020016040518091039020600201614019565b506005876040516134889190614d48565b9081526020016040518091039020600201899080600181540180825580915050600190039060005260206000200160009091909190915090816134cb9190614f6b565b506003896040516134dc9190614d48565b908152602001604051809103902060080182606001519080600181540180825580915050600190039060005260206000200160009091909190916101000a81548173ffffffffffffffffffffffffffffffffffffffff021916908373ffffffffffffffffffffffffffffffffffffffff160217905550816060015160038a6040516135679190614d48565b908152602001604051809103902060090160006101000a81548173ffffffffffffffffffffffffffffffffffffffff021916908373ffffffffffffffffffffffffffffffffffffffff160217905550600193506135d2565b84806135ca90615219565b955050613371565b5b5b83955050505050509392505050565b600060606003836040516135f79190614d48565b908152602001604051809103902060030160009054906101000a900460ff166003846040516136269190614d48565b908152602001604051809103902060050180805461364390614d8e565b80601f016020809104026020016040519081016040528092919081815260200182805461366f90614d8e565b80156136bc5780601f10613691576101008083540402835291602001916136bc565b820191906000526020600020905b81548152906001019060200180831161369f57829003601f168201915b5050505050905091509150915091565b60006002846040516136de9190614d48565b908152602001604051809103902060050160009054906101000a900460ff161561370b5760009050613865565b6137136142e3565b83816000018190525082816020018190525060018160a001901515908115158152505084816080018190525033816060019073ffffffffffffffffffffffffffffffffffffffff16908173ffffffffffffffffffffffffffffffffffffffff1681525050806002866040516137889190614d48565b908152602001604051809103902060008201518160000190816137ab9190614f6b565b5060208201518160010190816137c19190614f6b565b5060408201518160020190805190602001906137de92919061428a565b5060608201518160030160006101000a81548173ffffffffffffffffffffffffffffffffffffffff021916908373ffffffffffffffffffffffffffffffffffffffff160217905550608082015181600401908161383b9190614f6b565b5060a08201518160050160006101000a81548160ff02191690831515021790555090505060019150505b9392505050565b613874614331565b60006003836040516138869190614d48565b908152602001604051809103902060080180549050905060006138a7614331565b600091505b82821015613bb1576000600660006003886040516138ca9190614d48565b908152602001604051809103902060080185815481106138ed576138ec6151ea565b5b9060005260206000200160009054906101000a900473ffffffffffffffffffffffffffffffffffffffff1673ffffffffffffffffffffffffffffffffffffffff1673ffffffffffffffffffffffffffffffffffffffff168152602001908152602001600020805461395d90614d8e565b80601f016020809104026020016040519081016040528092919081815260200182805461398990614d8e565b80156139d65780601f106139ab576101008083540402835291602001916139d6565b820191906000526020600020905b8154815290600101906020018083116139b957829003601f168201915b505050505090506005816040516139ed9190614d48565b90815260200160405180910390206000018054613a0990614d8e565b80601f0160208091040260200160405190810160405280929190818152602001828054613a3590614d8e565b8015613a825780601f10613a5757610100808354040283529160200191613a82565b820191906000526020600020905b815481529060010190602001808311613a6557829003601f168201915b5050505050828460028110613a9a57613a996151ea565b5b6020020151600081518110613ab257613ab16151ea565b5b6020026020010181905250600581604051613acd9190614d48565b90815260200160405180910390206001018054613ae990614d8e565b80601f0160208091040260200160405190810160405280929190818152602001828054613b1590614d8e565b8015613b625780601f10613b3757610100808354040283529160200191613b62565b820191906000526020600020905b815481529060010190602001808311613b4557829003601f168201915b5050505050828460028110613b7a57613b796151ea565b5b6020020151600181518110613b9257613b916151ea565b5b6020026020010181905250508180613ba990615219565b9250506138ac565b809350505050919050565b6000613bc6614358565b83816000018190525082816020018190525084816080018190525033816060019073ffffffffffffffffffffffffffffffffffffffff16908173ffffffffffffffffffffffffffffffffffffffff168152505060018160a001901515908115158152505080600586604051613c3b9190614d48565b90815260200160405180910390206000820151816000019081613c5e9190614f6b565b506020820151816001019081613c749190614f6b565b506040820151816002019080519060200190613c9192919061428a565b5060608201518160030160006101000a81548173ffffffffffffffffffffffffffffffffffffffff021916908373ffffffffffffffffffffffffffffffffffffffff1602179055506080820151816004019081613cee9190614f6b565b5060a08201518160050160006101000a81548160ff02191690831515021790555090505060019150509392505050565b606080600583604051613d319190614d48565b9081526020016040518091039020600001600584604051613d529190614d48565b9081526020016040518091039020600101818054613d6f90614d8e565b80601f0160208091040260200160405190810160405280929190818152602001828054613d9b90614d8e565b8015613de85780601f10613dbd57610100808354040283529160200191613de8565b820191906000526020600020905b815481529060010190602001808311613dcb57829003601f168201915b50505050509150808054613dfb90614d8e565b80601f0160208091040260200160405190810160405280929190818152602001828054613e2790614d8e565b8015613e745780601f10613e4957610100808354040283529160200191613e74565b820191906000526020600020905b815481529060010190602001808311613e5757829003601f168201915b5050505050905091509150915091565b600080600484604051613e979190614d48565b908152602001604051809103902060050160009054906101000a900460ff1615613ff25760009050600484604051613ecf9190614d48565b908152602001604051809103902060020180549050811015613ff157613fba600485604051613efe9190614d48565b90815260200160405180910390206002018281548110613f2157613f206151ea565b5b906000526020600020018054613f3690614d8e565b80601f0160208091040260200160405190810160405280929190818152602001828054613f6290614d8e565b8015613faf5780601f10613f8457610100808354040283529160200191613faf565b820191906000526020600020905b815481529060010190602001808311613f9257829003601f168201915b505050505084613ffe565b15613fe7576004600384604051613fd19190614d48565b9081526020016040518091039020600401819055505b6001915050613ff8565b5b60009150505b92915050565b60008180519060200120838051906020012014905092915050565b60008180549050831061402f57600090506140e8565b60008390505b600183805490506140469190615261565b8110156140b3578260018261405b919061506c565b8154811061406c5761406b6151ea565b5b90600052602060002001838281548110614089576140886151ea565b5b90600052602060002001908161409f91906154e2565b5080806140ab90615219565b915050614035565b50818054806140c5576140c46155ca565b5b6001900381819060005260206000200160006140e191906143a6565b9055600190505b92915050565b6040518061016001604052806000815260200160608152602001600081526020016000600481111561412357614122614b07565b5b81526020016000815260200160608152602001600073ffffffffffffffffffffffffffffffffffffffff168152602001600073ffffffffffffffffffffffffffffffffffffffff16815260200160608152602001600073ffffffffffffffffffffffffffffffffffffffff168152602001600073ffffffffffffffffffffffffffffffffffffffff1681525090565b82805482825590600052602060002090810192821561422b579160200282015b8281111561422a5782518260006101000a81548173ffffffffffffffffffffffffffffffffffffffff021916908373ffffffffffffffffffffffffffffffffffffffff160217905550916020019190600101906141d2565b5b50905061423891906143e6565b5090565b6040518060c00160405280606081526020016060815260200160608152602001600073ffffffffffffffffffffffffffffffffffffffff168152602001606081526020016000151581525090565b8280548282559060005260206000209081019282156142d2579160200282015b828111156142d15782518290816142c19190614f6b565b50916020019190600101906142aa565b5b5090506142df9190614403565b5090565b6040518060c00160405280606081526020016060815260200160608152602001600073ffffffffffffffffffffffffffffffffffffffff168152602001606081526020016000151581525090565b60405180604001604052806002905b60608152602001906001900390816143405790505090565b6040518060c00160405280606081526020016060815260200160608152602001600073ffffffffffffffffffffffffffffffffffffffff168152602001606081526020016000151581525090565b5080546143b290614d8e565b6000825580601f106143c457506143e3565b601f0160209004906000526020600020908101906143e291906143e6565b5b50565b5b808211156143ff5760008160009055506001016143e7565b5090565b5b80821115614423576000818161441a91906143a6565b50600101614404565b5090565b6000604051905090565b600080fd5b600080fd5b600080fd5b600080fd5b6000601f19601f8301169050919050565b7f4e487b7100000000000000000000000000000000000000000000000000000000600052604160045260246000fd5b61448e82614445565b810181811067ffffffffffffffff821117156144ad576144ac614456565b5b80604052505050565b60006144c0614427565b90506144cc8282614485565b919050565b600067ffffffffffffffff8211156144ec576144eb614456565b5b6144f582614445565b9050602081019050919050565b82818337600083830152505050565b600061452461451f846144d1565b6144b6565b9050828152602081018484840111156145405761453f614440565b5b61454b848285614502565b509392505050565b600082601f8301126145685761456761443b565b5b8135614578848260208601614511565b91505092915050565b6000819050919050565b61459481614581565b811461459f57600080fd5b50565b6000813590506145b18161458b565b92915050565b600080600080608085870312156145d1576145d0614431565b5b600085013567ffffffffffffffff8111156145ef576145ee614436565b5b6145fb87828801614553565b945050602061460c878288016145a2565b935050604085013567ffffffffffffffff81111561462d5761462c614436565b5b61463987828801614553565b925050606085013567ffffffffffffffff81111561465a57614659614436565b5b61466687828801614553565b91505092959194509250565b61467b81614581565b82525050565b60006020820190506146966000830184614672565b92915050565b600080604083850312156146b3576146b2614431565b5b600083013567ffffffffffffffff8111156146d1576146d0614436565b5b6146dd85828601614553565b925050602083013567ffffffffffffffff8111156146fe576146fd614436565b5b61470a85828601614553565b9150509250929050565b60008115159050919050565b61472981614714565b82525050565b60006020820190506147446000830184614720565b92915050565b6000602082840312156147605761475f614431565b5b600082013567ffffffffffffffff81111561477e5761477d614436565b5b61478a84828501614553565b91505092915050565b600081519050919050565b600082825260208201905092915050565b60005b838110156147cd5780820151818401526020810190506147b2565b60008484015250505050565b60006147e482614793565b6147ee818561479e565b93506147fe8185602086016147af565b61480781614445565b840191505092915050565b6000604082019050818103600083015261482c81856147d9565b9050818103602083015261484081846147d9565b90509392505050565b60008060006060848603121561486257614861614431565b5b600084013567ffffffffffffffff8111156148805761487f614436565b5b61488c86828701614553565b935050602084013567ffffffffffffffff8111156148ad576148ac614436565b5b6148b986828701614553565b925050604084013567ffffffffffffffff8111156148da576148d9614436565b5b6148e686828701614553565b9150509250925092565b600073ffffffffffffffffffffffffffffffffffffffff82169050919050565b600061491b826148f0565b9050919050565b61492b81614910565b82525050565b6000608082019050818103600083015261494b81876147d9565b905061495a6020830186614672565b6149676040830185614672565b6149746060830184614922565b95945050505050565b6000806040838503121561499457614993614431565b5b60006149a2858286016145a2565b925050602083013567ffffffffffffffff8111156149c3576149c2614436565b5b6149cf85828601614553565b9150509250929050565b600081519050919050565b600082825260208201905092915050565b6000819050602082019050919050565b600082825260208201905092915050565b6000614a2182614793565b614a2b8185614a05565b9350614a3b8185602086016147af565b614a4481614445565b840191505092915050565b6000614a5b8383614a16565b905092915050565b6000602082019050919050565b6000614a7b826149d9565b614a8581856149e4565b935083602082028501614a97856149f5565b8060005b85811015614ad35784840389528151614ab48582614a4f565b9450614abf83614a63565b925060208a01995050600181019050614a9b565b50829750879550505050505092915050565b60006020820190508181036000830152614aff8184614a70565b905092915050565b7f4e487b7100000000000000000000000000000000000000000000000000000000600052602160045260246000fd5b60058110614b4757614b46614b07565b5b50565b6000819050614b5882614b36565b919050565b6000614b6882614b4a565b9050919050565b614b7881614b5d565b82525050565b6000604082019050614b936000830185614b6f565b8181036020830152614ba581846147d9565b90509392505050565b600060029050919050565b600081905092915050565b6000819050919050565b600082825260208201905092915050565b6000614bea826149d9565b614bf48185614bce565b935083602082028501614c06856149f5565b8060005b85811015614c425784840389528151614c238582614a4f565b9450614c2e83614a63565b925060208a01995050600181019050614c0a565b50829750879550505050505092915050565b6000614c608383614bdf565b905092915050565b6000602082019050919050565b6000614c8082614bae565b614c8a8185614bb9565b935083602082028501614c9c85614bc4565b8060005b85811015614cd85784840389528151614cb98582614c54565b9450614cc483614c68565b925060208a01995050600181019050614ca0565b50829750879550505050505092915050565b60006020820190508181036000830152614d048184614c75565b905092915050565b600081905092915050565b6000614d2282614793565b614d2c8185614d0c565b9350614d3c8185602086016147af565b80840191505092915050565b6000614d548284614d17565b915081905092915050565b7f4e487b7100000000000000000000000000000000000000000000000000000000600052602260045260246000fd5b60006002820490506001821680614da657607f821691505b602082108103614db957614db8614d5f565b5b50919050565b60008190508160005260206000209050919050565b60006020601f8301049050919050565b600082821b905092915050565b600060088302614e217fffffffffffffffffffffffffffffffffffffffffffffffffffffffffffffffff82614de4565b614e2b8683614de4565b95508019841693508086168417925050509392505050565b6000819050919050565b6000614e68614e63614e5e84614581565b614e43565b614581565b9050919050565b6000819050919050565b614e8283614e4d565b614e96614e8e82614e6f565b848454614df1565b825550505050565b600090565b614eab614e9e565b614eb6818484614e79565b505050565b5b81811015614eda57614ecf600082614ea3565b600181019050614ebc565b5050565b601f821115614f1f57614ef081614dbf565b614ef984614dd4565b81016020851015614f08578190505b614f1c614f1485614dd4565b830182614ebb565b50505b505050565b600082821c905092915050565b6000614f4260001984600802614f24565b1980831691505092915050565b6000614f5b8383614f31565b9150826002028217905092915050565b614f7482614793565b67ffffffffffffffff811115614f8d57614f8c614456565b5b614f978254614d8e565b614fa2828285614ede565b600060209050601f831160018114614fd55760008415614fc3578287015190505b614fcd8582614f4f565b865550615035565b601f198416614fe386614dbf565b60005b8281101561500b57848901518255600182019150602085019450602081019050614fe6565b868310156150285784890151615024601f891682614f31565b8355505b6001600288020188555050505b505050505050565b7f4e487b7100000000000000000000000000000000000000000000000000000000600052601160045260246000fd5b600061507782614581565b915061508283614581565b925082820190508082111561509a5761509961503d565b5b92915050565b7f50726f64756374206973206e6f7420696e207468652027466f722053616c652760008201527f2053746174652e00000000000000000000000000000000000000000000000000602082015250565b60006150fc60278361479e565b9150615107826150a0565b604082019050919050565b6000602082019050818103600083015261512b816150ef565b9050919050565b7f54686520616d6f756e742070616964206973206e6f742073756666696369656e60008201527f7420746f20636f76657220746865207072696365206f66207468652070726f6460208201527f7563742e00000000000000000000000000000000000000000000000000000000604082015250565b60006151b460448361479e565b91506151bf82615132565b606082019050919050565b600060208201905081810360008301526151e3816151a7565b9050919050565b7f4e487b7100000000000000000000000000000000000000000000000000000000600052603260045260246000fd5b600061522482614581565b91507fffffffffffffffffffffffffffffffffffffffffffffffffffffffffffffffff82036152565761525561503d565b5b600182019050919050565b600061526c82614581565b915061527783614581565b925082820390508181111561528f5761528e61503d565b5b92915050565b7f70726f64756374206973206e6f7420696e2074686520736f6c6420537461746560008201527f2e00000000000000000000000000000000000000000000000000000000000000602082015250565b60006152f160218361479e565b91506152fc82615295565b604082019050919050565b60006020820190508181036000830152615320816152e4565b9050919050565b7f43616c6c657220636f756c646e27742062652076657269666965642e00000000600082015250565b600061535d601c8361479e565b915061536882615327565b602082019050919050565b6000602082019050818103600083015261538c81615350565b9050919050565b7f70726f64756374206973206e6f7420696e20746865202753686970706564272060008201527f53746174652e0000000000000000000000000000000000000000000000000000602082015250565b60006153ef60268361479e565b91506153fa82615393565b604082019050919050565b6000602082019050818103600083015261541e816153e2565b9050919050565b7f70726f64756374206973206e6f7420696e20746865202752656365697665642760008201527f2053746174652e00000000000000000000000000000000000000000000000000602082015250565b600061548160278361479e565b915061548c82615425565b604082019050919050565b600060208201905081810360008301526154b081615474565b9050919050565b6000815490506154c681614d8e565b9050919050565b60008190508160005260206000209050919050565b8181036154f05750506155c8565b6154f9826154b7565b67ffffffffffffffff81111561551257615511614456565b5b61551c8254614d8e565b615527828285614ede565b6000601f8311600181146155565760008415615544578287015490505b61554e8582614f4f565b8655506155c1565b601f198416615564876154cd565b965061556f86614dbf565b60005b8281101561559757848901548255600182019150600185019450602081019050615572565b868310156155b457848901546155b0601f891682614f31565b8355505b6001600288020188555050505b5050505050505b565b7f4e487b7100000000000000000000000000000000000000000000000000000000600052603160045260246000fdfea264697066735822122001e258ffd73aa7c7e5689cfdbab93f92db73e709d8d00e03c93d704737c81ba864736f6c63430008110033",
  "immutableReferences": {},
  "source": "pragma solidity ^0.8.17;\r\npragma experimental ABIEncoderV2;\r\n\r\ncontract SupplyChain {\r\n    address payable owner;\r\n    uint256 productID;\r\n\r\n    enum State {\r\n        ForSale, // 1\r\n        Sold, // 2\r\n        Shipped, // 3\r\n        Received, // 4\r\n        Purchased // 5\r\n    }\r\n\r\n    State constant defaultState = State.ForSale;\r\n\r\n    struct manfacturerDetails {\r\n        string name;\r\n        string phone;\r\n        string[] product;\r\n        address manufacturerID;\r\n        //consumer has a set of products\r\n        string hashedEmail;\r\n        bool existing;\r\n        //existing will tell whether a manufacturer is already existing or not\r\n        // string[] product - array of products owned by the customer\r\n    }\r\n\r\n    // struct which helps create a new product. Product is a combination all of the below things\r\n    struct productDetails {\r\n        uint256 productID;\r\n        string brand;\r\n        uint256 productPrice; // Product Price\r\n        State itemState; // Product State in the supply chain as represented in the enum above\r\n        uint256 state;\r\n        string description; // Product decription\r\n        address payable manufacturerID; // Metamask-Ethereum address of the Manufacturer\r\n        address payable consumerID; // Metamask-Ethereum address of the Consumer\r\n        address[] retailerID; // Metamask-Ethereum address of the all Retailers\r\n        address ownerID; // Metamask-Ethereum address of the current owner as the product moves through 5 stages\r\n        address lastretailer; //address of the Last Retailer of the supply chain\r\n    }\r\n\r\n    struct consumerDetails {\r\n        string name;\r\n        string phone;\r\n        string[] product;\r\n        address consumerID;\r\n        //consumer has a set of products\r\n        string hashedEmail;\r\n        bool existing;\r\n        //existing will tell whether a customer is already existing or not\r\n        // string[] product - array of products owned by the customer\r\n    }\r\n\r\n    struct sellerDetails {\r\n        string name;\r\n        string location;\r\n        string[] product;\r\n        address retailerID;\r\n        string hashedEmail;\r\n        bool existing;\r\n    }\r\n\r\n    mapping(string => manfacturerDetails) manufacturerArr;\r\n    mapping(string => productDetails) productArr;\r\n    mapping(string => consumerDetails) consumerArr;\r\n    mapping(string => sellerDetails) sellerArr;\r\n    mapping(address => string) addresstoHashedEmail;\r\n\r\n    // 5 events\r\n    event ForSale(uint256 productID);\r\n    event Sold(uint256 productID);\r\n    event Shipped(uint256 productID);\r\n    event Received(uint256 productID);\r\n    event Purchased(uint256 productID);\r\n\r\n    // Define a modifer that verifies the Caller\r\n    modifier verify(address _address) {\r\n        require(msg.sender == _address, \"Caller couldn't be verified.\");\r\n        _;\r\n    }\r\n\r\n    // Define a modifier that checks if the amount paid is sufficient enough\r\n    modifier paidEnough(uint256 _price) {\r\n        require(\r\n            msg.value >= _price,\r\n            \"The amount paid is not sufficient to cover the price of the product.\"\r\n        );\r\n        _;\r\n    }\r\n\r\n    // Define a modifier that checks the price and refunds the remaining balance\r\n    modifier check(string memory _product) {\r\n        _;\r\n        uint256 _price = productArr[_product].productPrice;\r\n        uint256 amountToReturn = msg.value - _price;\r\n        productArr[_product].consumerID.transfer(amountToReturn);\r\n    }\r\n\r\n    // Define a modifier that checks if an product.itemState of a product is ForSale\r\n    modifier forSale(string memory _product) {\r\n        require(\r\n            productArr[_product].itemState == State.ForSale,\r\n            \"Product is not in the 'For Sale' State.\"\r\n        );\r\n        _;\r\n    }\r\n\r\n    // Define a modifier that checks if the product.itemState of a product is Sold\r\n    modifier sold(string memory _product) {\r\n        require(\r\n            productArr[_product].itemState == State.Sold,\r\n            \"product is not in the sold State.\"\r\n        );\r\n        _;\r\n    }\r\n\r\n    // Define a modifier that checks if the product.itemState of a product is Shipped\r\n    modifier shipped(string memory _product) {\r\n        require(\r\n            productArr[_product].itemState == State.Shipped,\r\n            \"product is not in the 'Shipped' State.\"\r\n        );\r\n        _;\r\n    }\r\n\r\n    // Define a modifier that checks if the product.itemState of a product is Received\r\n    modifier received(string memory _product) {\r\n        require(\r\n            productArr[_product].itemState == State.Received,\r\n            \"product is not in the 'Received' State.\"\r\n        );\r\n        _;\r\n    }\r\n\r\n    // Define a modifier that checks if the product.itemState of a product is Purchased\r\n    modifier purchased(string memory _product) {\r\n        require(\r\n            productArr[_product].itemState == State.Purchased,\r\n            \"product is not in the 'Purchased' State.\"\r\n        );\r\n        _;\r\n    }\r\n\r\n    constructor() payable {\r\n        owner = payable(msg.sender);\r\n        productID = 1;\r\n    }\r\n\r\n    // Define a function 'kill' if required. Only the owner/the address who deployed the contract can kill the contract\r\n    function kill() public {\r\n        if (msg.sender == owner) {\r\n            selfdestruct(owner);\r\n        }\r\n    }\r\n\r\n    // Function to create a new product that allows a manfacturer to mark an item 'ForSale'\r\n    function createProduct(\r\n        string memory _product,\r\n        uint256 _price,\r\n        string memory _brand,\r\n        string memory _description\r\n    ) public payable returns (uint256) {\r\n        productDetails memory newproduct;\r\n        newproduct.brand = _brand;\r\n        newproduct.productPrice = _price;\r\n        newproduct.manufacturerID = payable(msg.sender);\r\n        newproduct.productID = productID;\r\n        newproduct.itemState = State.ForSale;\r\n        newproduct.state = 1;\r\n        newproduct.description = _description;\r\n        productArr[_product] = newproduct;\r\n        productID = productID + 1;\r\n        emit ForSale(productID);\r\n        return 1;\r\n    }\r\n\r\n    // Function for creating a new customer/user\r\n    function createManufacturer(\r\n        string memory _hashedEmail,\r\n        string memory _name,\r\n        string memory _phone\r\n    ) public payable returns (bool) {\r\n        if (manufacturerArr[_hashedEmail].existing) {\r\n            return false;\r\n        }\r\n        manfacturerDetails memory newManfacturer;\r\n        newManfacturer.name = _name;\r\n        newManfacturer.phone = _phone;\r\n        newManfacturer.existing = true;\r\n        newManfacturer.hashedEmail = _hashedEmail;\r\n        newManfacturer.manufacturerID = msg.sender;\r\n        manufacturerArr[_hashedEmail] = newManfacturer;\r\n        return true;\r\n    }\r\n\r\n    // Function to get product details except retailer/seller information\r\n\r\n    function getProductDetails1(string memory _product)\r\n        public\r\n        view\r\n        returns (\r\n            string memory,\r\n            uint256,\r\n            uint256,\r\n            address\r\n        )\r\n    {\r\n        return (\r\n            productArr[_product].brand,\r\n            productArr[_product].productID,\r\n            productArr[_product].productPrice,\r\n            productArr[_product].manufacturerID\r\n        );\r\n    }\r\n\r\n    function getProductDetails2(string memory _product)\r\n        public\r\n        view\r\n        returns (State, string memory)\r\n    {\r\n        return (\r\n            productArr[_product].itemState,\r\n            productArr[_product].description\r\n        );\r\n    }\r\n\r\n    // Function to get retailer(s) information associated with the product\r\n\r\n    function getProductRetailerDetails(string memory _product)\r\n        public\r\n        view\r\n        returns (string[][2] memory)\r\n    {\r\n        uint256 sellersassociatedwithproduct = productArr[_product]\r\n            .retailerID\r\n            .length;\r\n        uint256 i;\r\n        string[][2] memory ans;\r\n        for (i = 0; i < sellersassociatedwithproduct; i++) {\r\n            string memory retailerHashedEmail = addresstoHashedEmail[\r\n                productArr[_product].retailerID[i]\r\n            ];\r\n            ans[i][0] = sellerArr[retailerHashedEmail].name;\r\n            ans[i][1] = sellerArr[retailerHashedEmail].location;\r\n        }\r\n        return ans;\r\n    }\r\n\r\n    // Function for creating a new customer/user\r\n    function createCustomer(\r\n        string memory _hashedEmail,\r\n        string memory _name,\r\n        string memory _phone\r\n    ) public payable returns (bool) {\r\n        if (consumerArr[_hashedEmail].existing) {\r\n            return false;\r\n        }\r\n        consumerDetails memory newCustomer;\r\n        newCustomer.name = _name;\r\n        newCustomer.phone = _phone;\r\n        newCustomer.existing = true;\r\n        newCustomer.hashedEmail = _hashedEmail;\r\n        newCustomer.consumerID = msg.sender;\r\n        consumerArr[_hashedEmail] = newCustomer;\r\n        return true;\r\n    }\r\n\r\n    // Function to get consumer details\r\n\r\n    function getConsumerDetails(string memory _hashedEmail)\r\n        public\r\n        view\r\n        returns (string memory, string memory)\r\n    {\r\n        return (\r\n            consumerArr[_hashedEmail].name,\r\n            consumerArr[_hashedEmail].phone\r\n        );\r\n    }\r\n\r\n    // Function for creating a seller\r\n\r\n    function createSeller(\r\n        string memory _hashedEmail,\r\n        string memory _sellerName,\r\n        string memory _sellerLocation\r\n    ) public payable returns (uint256) {\r\n        sellerDetails memory newSeller;\r\n        newSeller.name = _sellerName;\r\n        newSeller.location = _sellerLocation;\r\n        newSeller.hashedEmail = _hashedEmail;\r\n        newSeller.retailerID = msg.sender;\r\n        newSeller.existing = true;\r\n        sellerArr[_hashedEmail] = newSeller;\r\n        return 1;\r\n    }\r\n\r\n    //Function to get Seller Details\r\n\r\n    function getSellerDetails(string memory _hashedEmail)\r\n        public\r\n        view\r\n        returns (string memory, string memory)\r\n    {\r\n        return (sellerArr[_hashedEmail].name, sellerArr[_hashedEmail].location);\r\n    }\r\n\r\n    // Return all products of a given customer/seller\r\n\r\n    function getProducts(uint256 flag, string memory _hashedEmail)\r\n        public\r\n        view\r\n        returns (string[] memory)\r\n    {\r\n        if (flag == 1) {\r\n            return consumerArr[_hashedEmail].product;\r\n        }\r\n        return sellerArr[_hashedEmail].product;\r\n    }\r\n\r\n    // Cannot directly compare strings in Solidity\r\n    // This function hashes the 2 strings and then compares the 2 hashes\r\n    function compareStrings(string memory a, string memory b)\r\n        internal\r\n        returns (bool)\r\n    {\r\n        return keccak256(bytes(a)) == keccak256(bytes(b));\r\n    }\r\n\r\n    function ConsumerBuys(\r\n        string memory _product,\r\n        string memory _consumer,\r\n        string memory _seller\r\n    )\r\n        public\r\n        payable\r\n        //Call modifier to check if product is for Sale\r\n        forSale(_product)\r\n        // Call modifer to check if consumer has paid enough\r\n        paidEnough(productArr[_product].productPrice)\r\n        // Call modifer to send any excess ether back to consumer\r\n        check(_product)\r\n        returns (bool)\r\n    {\r\n        uint256 i;\r\n        bool flag = false;\r\n        sellerDetails memory seller = sellerArr[_seller];\r\n        uint256 productsassociatedwithseller = seller.product.length;\r\n        consumerDetails memory consumer = consumerArr[_consumer];\r\n        //check if the product has the seller\r\n        // check if the seller has the product listed. if yes, remove the product and add the product to consumer. add consumer to product\r\n\r\n        if (seller.existing && consumer.existing) {\r\n            if (productArr[_product].ownerID == seller.retailerID) {\r\n                flag = true;\r\n            }\r\n            if (flag == true) {\r\n                for (i = 0; i < productsassociatedwithseller; i++) {\r\n                    if (\r\n                        compareStrings(sellerArr[_seller].product[i], _product)\r\n                    ) {\r\n                        remove(i, sellerArr[_seller].product);\r\n                        consumerArr[_consumer].product.push(_product);\r\n                        productArr[_product].consumerID = payable(\r\n                            consumer.consumerID\r\n                        );\r\n                        productArr[_product].ownerID = consumer.consumerID;\r\n                        productArr[_product].lastretailer = seller.retailerID;\r\n                        productArr[_product].itemState = State.Sold;\r\n                        productArr[_product].state = 3;\r\n                        // Transfer money to manfacturer\r\n                        productArr[_product].manufacturerID.transfer(\r\n                            productArr[_product].productPrice\r\n                        );\r\n                        // emit the appropriate event\r\n                        emit Sold(productArr[_product].productID);\r\n                        flag = true;\r\n                        break;\r\n                    }\r\n                }\r\n            }\r\n        }\r\n        return flag;\r\n    }\r\n\r\n    // ShipProduct is function\r\n    function ShipProduct(string memory _product)\r\n        public\r\n        // Call modifier to check if product has passed previous stage of supply chain\r\n        sold(_product)\r\n        // Call modifier to verify caller of this function\r\n        verify(productArr[_product].lastretailer)\r\n    {\r\n        // Update the state\r\n        productArr[_product].itemState = State.Shipped;\r\n        // Emit the appropriate event\r\n        emit Shipped(productArr[_product].productID);\r\n    }\r\n\r\n    // Define a function 'receiveItem'\r\n    function receiveItem(string memory _product)\r\n        public\r\n        // Call modifier to check if product has passed previous stage of supply chain\r\n        shipped(_product)\r\n        verify(productArr[_product].ownerID)\r\n    {\r\n        productArr[_product].itemState = State.Received;\r\n        emit Received(productArr[_product].productID);\r\n    }\r\n\r\n    // Define a function 'purchaseItem' that allows the consumer to mark an item 'Purchased'\r\n    function purchaseItem(string memory _product)\r\n        public\r\n        received(_product)\r\n        verify(productArr[_product].ownerID)\r\n    {\r\n        productArr[_product].itemState = State.Purchased;\r\n        emit Purchased(productArr[_product].productID);\r\n    }\r\n\r\n    function RetailertoRetailer(\r\n        string memory _product,\r\n        string memory _fromseller,\r\n        string memory _toseller\r\n    ) public payable returns (bool) {\r\n        uint256 i;\r\n        bool flag = false;\r\n        sellerDetails memory oldSeller = sellerArr[_fromseller];\r\n        sellerDetails memory newSeller = sellerArr[_toseller];\r\n        uint256 productsassociatedwitholdseller = oldSeller.product.length;\r\n\r\n        if (oldSeller.existing && newSeller.existing) {\r\n            if (productArr[_product].ownerID == oldSeller.retailerID) {\r\n                flag = true;\r\n            }\r\n            if (flag == true) {\r\n                for (i = 0; i < productsassociatedwitholdseller; i++) {\r\n                    if (\r\n                        compareStrings(\r\n                            sellerArr[_fromseller].product[i],\r\n                            _product\r\n                        )\r\n                    ) {\r\n                        remove(i, sellerArr[_fromseller].product);\r\n                        sellerArr[_toseller].product.push(_product);\r\n                        productArr[_product].retailerID.push(\r\n                            newSeller.retailerID\r\n                        );\r\n                        productArr[_product].ownerID = newSeller.retailerID;\r\n                        flag = true;\r\n                        break;\r\n                    }\r\n                }\r\n            }\r\n        }\r\n        return flag;\r\n    }\r\n\r\n    function InitialOwner(string memory _product, string memory _retailer)\r\n        public\r\n        payable\r\n        returns (bool)\r\n    {\r\n        if (sellerArr[_retailer].existing) {\r\n            productArr[_product].retailerID.push(\r\n                (sellerArr[_retailer].retailerID)\r\n            );\r\n            productArr[_product].ownerID = sellerArr[_retailer].retailerID;\r\n            productArr[_product].state = 2;\r\n            sellerArr[_retailer].product.push(_product);\r\n            return true;\r\n        }\r\n        return false;\r\n    }\r\n\r\n    // Function to delete an element from an array\r\n    function remove(uint256 index, string[] storage array)\r\n        internal\r\n        returns (bool)\r\n    {\r\n        if (index >= array.length) return false;\r\n\r\n        for (uint256 i = index; i < array.length - 1; i++) {\r\n            array[i] = array[i + 1];\r\n        }\r\n        array.pop();\r\n        return true;\r\n    }\r\n\r\n    function checkFakeProd(string memory _product, string memory _retailer)\r\n        public\r\n        payable\r\n        returns (bool)\r\n    {\r\n        productDetails memory newproduct = productArr[_product];\r\n        if (newproduct.ownerID == sellerArr[_retailer].retailerID) {\r\n            // Check if retailer data matches with retailers data in BC\r\n            return true;\r\n        }\r\n        return false;\r\n    }\r\n\r\n    // Function to report stolen\r\n    function reportproductstolen(\r\n        string memory _consumer,\r\n        string memory _product\r\n    ) public payable returns (bool) {\r\n        uint256 i;\r\n        if (consumerArr[_consumer].existing) {\r\n            for (i = 0; i < consumerArr[_consumer].product.length; i++) {\r\n                if (\r\n                    compareStrings(consumerArr[_consumer].product[i], _product)\r\n                ) {\r\n                    productArr[_product].state = 4;\r\n                }\r\n                return true;\r\n            }\r\n        }\r\n        return false;\r\n    }\r\n\r\n    function returnproduct(string memory _consumer, string memory _product)\r\n        public\r\n        payable\r\n        returns (bool)\r\n    {\r\n        if (consumerArr[_consumer].existing) {\r\n            uint256 productsellers = productArr[_product].retailerID.length;\r\n            string memory retailerHashedEmail = addresstoHashedEmail[\r\n                productArr[_product].retailerID[productsellers - 1]\r\n            ];\r\n            if (sellerArr[retailerHashedEmail].existing) {\r\n                productArr[_product].ownerID = productArr[_product].retailerID[\r\n                    productsellers - 1\r\n                ];\r\n                productArr[_product].consumerID = payable(address(0));\r\n                uint256 i;\r\n                for (i = 0; i < consumerArr[_consumer].product.length; i++) {\r\n                    if (\r\n                        compareStrings(\r\n                            consumerArr[_consumer].product[i],\r\n                            _product\r\n                        )\r\n                    ) {\r\n                        sellerArr[retailerHashedEmail].product.push(_product);\r\n                        remove(i, consumerArr[_consumer].product);\r\n                        return true;\r\n                    }\r\n                }\r\n            }\r\n        }\r\n        return false;\r\n    }\r\n}\r\n",
  "sourcePath": "C:\\Users\\priya\\OneDrive\\Desktop\\BCPRO_v1\\bc_pro\\contracts\\SupplyChain.sol",
  "compiler": {
    "name": "solc",
    "version": "0.8.17+commit.8df45f5f.Emscripten.clang"
  },
  "schemaVersion": "3.4.10",
  "updatedAt": "2022-11-14T17:17:34.764Z",
  "networkType": "ethereum",
  "devdoc": {
    "kind": "dev",
    "methods": {},
    "version": 1
  },
  "userdoc": {
    "kind": "user",
    "methods": {},
    "version": 1
  }
}